:100000000C949B060C94BA060C94BA060C94BA068F
:100010000C94BA060C94BA060C94BA060C94BA0660
:100020000C94BA060C944E0F0C94BA060C94BA06B3
:100030000C94BA060C94BA060C94BA060C94BA0640
:100040000C94BA060C94BA060C94BA060C94BA0630
:100050000C94BA060C940D070C94BA060C94BA06CC
:100060000C94BA060C94BA060C940B0E0C94BA06B7
:100070000C94BA060C94BA060C94BA060C94BA0600
:100080000C94BA060C94BA060C94BA060000000050
:100090000000005F00000007000700147F147F14B9
:1000A000242A7F2A122313086462364955225000FD
:1000B00005030000001C2241000041221C00082A08
:1000C0001C2A0808083E08080050300000080808EC
:1000D0000808003030000020100804023E51494555
:1000E0003E00427F400042615149462141454B312B
:1000F0001814127F1027454545393C4A49493001BB
:10010000710905033649494936064949291E003611
:100110003600000056360000000814224114141462
:100120001414412214080002015109063249794190
:100130003E7E1111117E7F494949363E414141229F
:100140007F4141221C7F494949417F090901013E04
:10015000414151327F0808087F00417F4100204023
:10016000413F017F081422417F404040407F02040C
:10017000027F7F0408107F3E4141413E7F0909090B
:10018000063E4151215E7F091929464649494931B8
:1001900001017F01013F4040403F1F2040201F7F61
:1001A0002018207F6314081463030478040361514A
:1001B00049454300007F4141020408102041417F2E
:1001C00000000402010204404040404000010204DB
:1001D0000020545454787F484444383844444420E0
:1001E000384444487F3854545418087E09010208A2
:1001F0001454543C7F0804047800447D400020409F
:10020000443D00007F10284400417F40007C0418DA
:1002100004787C0804047838444444387C1414146A
:1002200008081414187C7C0804040848545454200A
:10023000043F4440203C4040207C1C2040201C3C8B
:100240004030403C44281028440C5050503C4464FA
:10025000544C44000836410000007F000000413645
:10026000080008082A1C08081C2A080880838689B8
:100270008C8F9295989C9FA2A5A8ABAEB0B3B6B94F
:10028000BCBFC1C4C7C9CCCED1D3D5D8DADCDEE07F
:10029000E2E4E6E8EAECEDEFF0F2F3F5F6F7F8F970
:1002A000FAFBFCFCFDFEFEFFFFFFFFFFFFFFFFFF71
:1002B000FFFFFEFEFDFCFCFBFAF9F8F7F6F5F3F2A2
:1002C000F0EFEDECEAE8E6E4E2E0DEDCDAD8D5D304
:1002D000D1CECCC9C7C4C1BFBCB9B6B3B0AEABA850
:1002E000A5A29F9C9895928F8C898683807C797635
:1002F00073706D6A6763605D5A5754514F4C49463D
:1003000043403E3B383633312E2C2A272523211FEC
:100310001D1B1917151312100F0D0C0A09080706DB
:1003200005040303020101000000000000000000BA
:10033000000001010203030405060708090A0C0D69
:100340000F1012131517191B1D1F212325272A2CE7
:100350002E313336383B3E404346494C4F5154577B
:100360005A5D6063676A6D707376797C8083868975
:100370008C8F9295989C9FA2A5A8ABAEB0B3B6B94E
:10038000BCBFC1C4C7C9CCCED1D3D5D8DADCDEE07E
:10039000E2E4E6E8EAECEDEFF0F2F3F5F6F7F8F96F
:1003A000FAFBFCFCFDFEFEFFFFFFFFFFFFFFFFFF70
:1003B000FFFFFEFEFDFCFCFBFAF9F8F7F6F5F3F2A1
:1003C000F0EFEDECEAE8E6E4E2E0DEDCDAD8D5D303
:1003D000D1CECCC9C7C4C1BFBCB9B6B3B0AEABA84F
:1003E000A5A29F9C9895928F8C898683807C797634
:1003F00073706D6A6763605D5A5754514F4C49463C
:1004000043403E3B383633312E2C2A272523211FEB
:100410001D1B1917151312100F0D0C0A09080706DA
:1004200005040303020101000000000000000000B9
:10043000000001010203030405060708090A0C0D68
:100440000F1012131517191B1D1F212325272A2CE6
:100450002E313336383B3E404346494C4F5154577A
:100460005A5D6063676A6D707376797C0005090E6A
:1004700013171C21252A2F33383C41464A4F535726
:100480005C6064696D71757A7E82868A8E929599B8
:100490009DA1A4A8ABAFB2B5B9BCBFC2C5C8CBCEF5
:1004A000D0D3D6D8DBDDDFE2E4E6E8EAECEDEFF12D
:1004B000F2F4F5F6F7F8F9FAFBFCFDFDFEFEFFFF9E
:1004C000FFFFFFFFFFFEFEFEFDFCFCFBFAF9F8F765
:1004D000F6F4F3F2F0EEEDEBE9E7E5E3E1DFDCDA89
:1004E000D7D5D2D0CDCAC7C4C1BEBBB8B4B1AEAAED
:1004F000A7A39F9C9894908C8884807C7874706C5F
:1005000067635F5A56514D49443F3B36322D29248B
:100510001F1B16110D0803FEFAF5F0ECE7E2DED919
:10052000D4D0CBC7C2BDB9B4B0ACA7A39E9A9692A3
:100530008D8985817D7975716D6966625E5B5754C1
:10054000504D494643403D3A3734312F2C2927241A
:1005500022201E1C1918161412100F0D0C0B09085E
:10056000070605040403030202010101000024F44C
:1005700073CB63AE9798A287127AF96EBA65E65D7F
:10058000315761514B4CCE47D1433F40093D213A51
:100590007D371335DD32D430F32E362D992B182AC2
:1005A000B12861272626FE24E723E122E921FE2047
:1005B00020204D1F851EC61D101D631CBE1B201B49
:1005C000891AF9196E19EA186A18EF177A170817B5
:1005D0009B163216CC156A150C15B1145814031459
:1005E000B01360131313C8127F123812F411B11133
:1005F00070113111F410B9107F1047101010DA0F7C
:10060000A60F740F420F120FE30EB50E880E5C0E8C
:10061000320E080EDF0DB70D900D6A0D450D200D41
:10062000FC0CD90CB70C960C750C550C350C160C33
:10063000F80BDA0BBD0BA00B840B690B4E0B330BC5
:10064000190BFF0AE60ACD0AB50A9D0A860A6F0A47
:10065000580A420A2C0A170A010AED09D809C409E6
:10066000B0099D0989097609640951093F092E09D4
:100670001C090B09FA08E908D808C808B808A8082E
:10068000990889087A086B085C084E083F08310809
:10069000230816080808FA07ED07E007D307C6077E
:1006A000BA07AD07A107950789077D077107660798
:1006B0005B074F07440739072E07230719070E0763
:1006C0000407FA06F006E606DC06D206C806BF06F0
:1006D000B506AC06A2069906900687067E06750644
:1006E0006D0664065C0653064B0643063A06320660
:1006F0002A062206350C250C160C070CF80BE90B04
:10070000DA0BCB0BBD0BAE0BA00B920B840B760B55
:10071000690B5B0B4E0B400B330B260B190B0C0BB1
:10072000FF0AF30AE60ADA0ACD0AC10AB50AA90ADB
:100730009D0A920A860A7A0A6F0A640A580A4D0AC2
:10074000420A370A2C0A210A170A0C0A010AF70979
:10075000ED09E209D809CE09C409BA09B009A60908
:100760009D0993098909800976096D0964095B0966
:10077000510948093F0936092E0925091C091309A1
:100780000B090209FA08F108E908E108D808D008BD
:10079000C808C008B808B008A808A00899089108B7
:1007A000890882087A0873086B0864085C08550891
:1007B0004E0847083F08380831082A0823081C0853
:1007C00016080F0808080108FA07F407ED07E707FD
:1007D000E007DA07D307CD07C607C007BA07B40793
:1007E000AD07A707A1079B0795078F078907830711
:1007F0007D07770771076C07660760075B0755077A
:100800004F074A0744073F07390734072E072907D0
:1008100023071E07190714070E0709070407FF0619
:10082000FA06F506F006EB06E606E106DC06D70654
:10083000D206CD06C806C306BF06BA06B506B00680
:10084000AC06A706A2069E069906950690068C069B
:10085000870683067E067A06750671066D066806AB
:10086000640660065C06570653064F064B064706AD
:1008700043063E063A06360632062E062A062606A7
:1008800022061E06350C2D0C250C1E0C160C0E0C0B
:10089000070CFF0BF80BF00BE90BE10BDA0BD30B9A
:1008A000CB0BC40BBD0BB60BAE0BA70BA00B990B60
:1008B000920B8B0B840B7D0B760B6F0B690B620B12
:1008C0005B0B540B4E0B470B400B3A0B330B2C0BB3
:1008D000260B1F0B190B120B0C0B060BFF0AF90A48
:1008E000F30AEC0AE60AE00ADA0AD40ACD0AC70AD1
:1008F000C10ABB0AB50AAF0AA90AA30A9D0A970A48
:10090000920A8C0A860A800A7A0A750A6F0A690AAC
:10091000640A5E0A580A530A4D0A480A420A3D0A06
:10092000370A320A2C0A270A210A1C0A170A110A56
:100930000C0A070A010AFC09F709F209ED09E7099F
:10094000E209DD09D809D309CE09C909C409BF09DB
:10095000BA09B509B009AB09A609A1099D09980909
:1009600093098E098909850980097B09760972092D
:100970006D09680964095F095B09560951094D0948
:10098000480944093F093B09360932092E0929095A
:10099000250920091C09180913090F090B09070962
:1009A0000209FE08FA08F608F108ED08E908E5086A
:1009B000E108DD08D808D408D008CC08C808C40865
:1009C000C008BC08B808B408B008AC08A808A40857
:1009D000A0089D089908950891088D08890886083F
:1009E00082087E087A08760873086F086B08670823
:1009F000640860085C085908550851084E084A0800
:100A0000470843083F083C083808350831082E08D5
:100A10002A08270847104010391032102B102410D4
:100A20001D101710101009100210FC0FF50FEE0F1B
:100A3000E80FE10FDA0FD40FCD0FC70FC00FBA0FB9
:100A4000B30FAD0FA60FA00F9A0F930F8D0F870F47
:100A5000800F7A0F740F6D0F670F610F5B0F550FCB
:100A60004E0F480F420F3C0F360F300F2A0F240F46
:100A70001E0F180F120F0C0F060F000FFA0EF40EB8
:100A8000EF0EE90EE30EDD0ED70ED20ECC0EC60E23
:100A9000C00EBB0EB50EAF0EAA0EA40E9F0E990E81
:100AA000930E8E0E880E830E7D0E780E720E6D0ED6
:100AB000670E620E5C0E570E520E4C0E470E420E23
:100AC0003C0E370E320E2C0E270E220E1D0E180E67
:100AD000120E0D0E080E030EFE0DF90DF30DEE0DA8
:100AE000E90DE40DDF0DDA0DD50DD00DCB0DC60DE2
:100AF000C10DBC0DB70DB20DAD0DA90DA40D9F0D0F
:100B00009A0D950D900D8B0D870D820D7D0D780D35
:100B1000740D6F0D6A0D650D610D5C0D570D530D54
:100B20004E0D490D450D400D3C0D370D320D2E0D6E
:100B3000290D250D200D1C0D170D130D0E0D0A0D81
:100B4000050D010DFC0CF80CF40CEF0CEB0CE70C94
:100B5000E20CDE0CD90CD50CD10CCD0CC80CC40C9D
:100B6000C00CBB0CB70CB30CAF0CAB0CA60CA20C9E
:100B70009E0C9A0C960C920C8D0C890C850C810C99
:100B80007D0C790C750C710C6D0C690C650C610C8D
:100B90005D0C590C550C510C4D0C490C450C410C7D
:100BA0003D0C390C6A1862185A1853184B18431820
:100BB0003B1834182C1824181D1815180E18061870
:100BC000FF17F717EF17E817E017D917D217CA174B
:100BD000C317BB17B417AD17A5179E1797178F1715
:100BE000881781177A1772176B1764175D175617D6
:100BF0004F1747174017391732172B1724171D1790
:100C000016170F1708170117FA16F316ED16E61642
:100C1000DF16D816D116CA16C416BD16B616AF16EC
:100C2000A816A2169B1694168E16871680167A168C
:100C300073166D1666165F16591652164C16451623
:100C40003F16381632162B1625161F1618161216B2
:100C50000B160516FF15F815F215EC15E515DF1541
:100C6000D915D315CC15C615C015BA15B415AD15C3
:100C7000A715A1159B1595158F15891583157D153C
:100C8000771570156A1564155E15581553154D15B1
:100C9000471541153B1535152F15291523151D151C
:100CA000181512150C1506150015FB14F514EF1484
:100CB000E914E414DE14D814D214CD14C714C114EA
:100CC000BC14B614B114AB14A514A0149A14951442
:100CD0008F148A1484147F14791474146E14691494
:100CE00063145E14581453144E14481443143D14E2
:100CF000381433142D14281423141D141814131429
:100D00000D1408140314FE13F813F313EE13E91370
:100D1000E413DE13D913D413CF13CA13C513C013AE
:100D2000BB13B513B013AB13A613A1139C139713E6
:100D300092138D13881311241FBECFEFD0E1DEBFB5
:100D4000CDBF11E0A0E0B1E0E0E0F3E200E00BBFD6
:100D500002C007900D92A436B107D9F711E0A4E6BE
:100D6000B1E001C01D92AF38B107E1F70E94D00B8E
:100D70000C947E110C94000035980895359A0895CE
:100D80003D9808953D9A0895379A08953398379875
:100D9000089596B1987F892B86B9089597B1829569
:100DA000880F880F807C9F73982B97B908950E94B5
:100DB000C4060E94BC0686E00E94C90681E00E942B
:100DC000CE060E94C00610927101339A789408955D
:100DD00097B18F71907E982B97B90895349A369A6F
:100DE000089586B1807408951092710197B18F7142
:100DF000907E982B97B9349A369A80917101882306
:100E0000E1F324B135B1822F932F08950E94F406A7
:100E1000969587959695879508951F920F920FB690
:100E20000F9211248F9381E0809371018F910F9025
:100E30000FBE0F901F901895A79AAF98A59AAD98DE
:100E4000A69AAE980895882391F090E0AF9AE7E9CA
:100E5000FAE33197F1F700C00000AF98E7ECFFEA42
:100E60003197F1F700C000009F5F981778F308955D
:100E70006115710509F0A0C0009711F4D898089584
:100E80008130910511F4D99808958230910511F4BB
:100E9000DA9808958330910511F4DB980895843031
:100EA000910511F4DC9808958530910511F4DD98D1
:100EB00008958630910511F4DE98089587309105E4
:100EC00011F4DF9808958A30910511F4C0980895BF
:100ED0008B30910511F4C19808958C30910511F46F
:100EE000C29808958D30910511F4C39808958E30FD
:100EF000910511F4C49808958F30910511F4C598A7
:100F000008958031910511F4C698089581319105B5
:100F100011F4C79808958431910511F4A8980895A3
:100F20008531910511F4A99808958631910511F440
:100F3000AA9808958731910511F4AB9808958831E6
:100F4000910511F4AC9808958931910511F4AD988B
:100F500008958A31910511F4AE9808958B31910569
:100F600011F4AF9808958E31910511F49098089579
:100F70008F31910511F4919808958032910511F403
:100F8000929808958132910511F4939808958232D0
:100F9000910511F4949808958332910511F4959870
:100FA00008958432910511F496980895853291053B
:100FB00009F0A0C097980895009711F4D89A089561
:100FC0008130910511F4D99A08958230910511F478
:100FD000DA9A08958330910511F4DB9A08958430EC
:100FE000910511F4DC9A08958530910511F4DD9A8C
:100FF00008958630910511F4DE9A089587309105A1
:1010000011F4DF9A08958A30910511F4C09A089579
:101010008B30910511F4C19A08958C30910511F42B
:10102000C29A08958D30910511F4C39A08958E30B7
:10103000910511F4C49A08958F30910511F4C59A61
:1010400008958031910511F4C69A08958131910572
:1010500011F4C79A08958431910511F4A89A08955E
:101060008531910511F4A99A08958631910511F4FD
:10107000AA9A08958731910511F4AB9A08958831A1
:10108000910511F4AC9A08958931910511F4AD9A46
:1010900008958A31910511F4AE9A08958B31910526
:1010A00011F4AF9A08958E31910511F4909A089534
:1010B0008F31910511F4919A08958032910511F4C0
:1010C000929A08958132910511F4939A089582328B
:1010D000910511F4949A08958332910511F4959A2B
:1010E00008958432910511F4969A089585329105F8
:1010F00009F4979A08950F931F93082F182F80FFD4
:1011000007C080E090E061E070E00E94380706C010
:1011100080E090E060E070E00E94380711FF07C0B7
:1011200081E090E061E070E00E94380706C081E055
:1011300090E060E070E00E94380712FF07C082E094
:1011400090E061E070E00E94380706C082E090E025
:1011500060E070E00E94380713FF07C083E090E072
:1011600061E070E00E94380706C083E090E060E034
:1011700070E00E94380714FF07C088E190E061E04A
:1011800070E00E94380706C088E190E060E070E0FF
:101190000E94380715FF07C089E190E061E070E028
:1011A0000E94380706C089E190E060E070E00E948C
:1011B000380716FF07C08AE190E061E070E00E9406
:1011C000380706C08AE190E060E070E00E943807CE
:1011D00000233CF48BE190E061E070E00E9438076E
:1011E00006C08BE190E060E070E00E9438071F913C
:1011F0000F9108951F93182F86E190E060E070E052
:101200000E943807812F0E947B0887E190E061E00F
:1012100070E00E94380789EF90E00197F1F700C075
:10122000000087E190E060E070E00E94380789EFFD
:1012300090E00197F1F700C000001F91089581E050
:101240000E94FA080895813029F4862F80580E9460
:10125000FA080895823021F4862F80540E94FA08FB
:10126000089586E190E060E070E00E94380787E131
:1012700090E060E070E00E94380787E893E1019712
:10128000F1F700C0000080E30E94FA0881EE94E0CC
:101290000197F1F700C0000080E30E94FA0889EF8F
:1012A00090E00197F1F700C0000080E30E94FA0887
:1012B00083EC99E00197F1F700C0000088E30E94F9
:1012C000FA088CE00E94FA0881E00E94FA0886E0A1
:1012D0000E94FA0808951F93182F86E190E061E0BC
:1012E00070E00E943807812F0E947B0887E190E020
:1012F00061E070E00E94380789EF90E00197F1F714
:1013000000C0000087E190E060E070E00E943807D4
:1013100089EF90E00197F1F700C000001F91089558
:10132000CF93DF93EC018881882331F021960E94CE
:101330006B0989918823D9F7DF91CF9108958CE1CA
:101340000E94FA08089588E10E94FA080895CF9350
:10135000DF93C82FD0E0CE0180FF07C088E190E086
:1013600061E070E00E94380706C088E190E060E02C
:1013700070E00E943807C1FF07C089E190E061E09A
:1013800070E00E94380706C089E190E060E070E0FC
:101390000E943807C2FF07C08AE190E061E070E078
:1013A0000E94380706C08AE190E060E070E00E9489
:1013B0003807C3FF07C08BE190E061E070E00E9456
:1013C000380706C08BE190E060E070E00E943807CB
:1013D000DF91CF9108951F93182F86E190E060E090
:1013E00070E00E943807812F0E94A70987E190E0F2
:1013F00061E070E00E94380789EF90E00197F1F713
:1014000000C0000087E190E060E070E00E943807D3
:1014100089EF90E00197F1F700C000001F91089557
:1014200080E00E94EB0981E00E94EB0908951F9380
:10143000813061F4162F1058812F82958F700E9491
:10144000EB09812F8F700E94EB090DC0823059F497
:10145000162F1054812F82958F700E94EB09812FD7
:101460008F700E94EB091F91089580E00E94A709E8
:1014700087E893E10197F1F700C0000083E00E9444
:10148000EB0981EE94E00197F1F700C0000083E0E2
:101490000E94EB098DEB9AE00197F1F700C0000084
:1014A00083E00E94EB0982E00E94EB0982E00E9447
:1014B000EB0988E00E94EB0980E00E94EB098CE0D8
:1014C0000E94EB0980E00E94EB0986E00E94EB0994
:1014D00008951F93182F86E190E061E070E00E946C
:1014E0003807812F82958F700E94A70987E190E0CD
:1014F00061E070E00E94380789EF90E00197F1F712
:1015000000C0000087E190E060E070E00E943807D2
:1015100089EF90E00197F1F700C00000812F8F70F4
:101520000E94A70987E190E061E070E00E9438071F
:1015300089EF90E00197F1F700C0000087E190E0AB
:1015400060E070E00E94380789EF90E00197F1F7C2
:1015500000C000001F910895CF93DF93EC018881B4
:10156000882331F021960E94690A89918823D9F74E
:10157000DF91CF91089581E00E94EB098CE00E94F9
:10158000EB09089581E00E94EB0988E00E94EB09D5
:10159000089582E060E00E94F20C80E091E00E94F9
:1015A000C40D82E062E00E94F20C8FE091E00E94A4
:1015B000C40D82E063E00E94F20C84E191E00E949D
:1015C000C40D82E065E00E94F20C8AE291E00E9484
:1015D000C40D82E066E00E94F20C85E391E00E9477
:1015E000C40D8FEB97E2A9E081509040A040E1F755
:1015F00000C000000E94080D0895F8940E941C0786
:101600000E94D7068FE996E8A1E081509040A04063
:10161000E1F700C000000E942C0D8AE00E948E0DB0
:1016200081E00E949F0D82E00E9423078FE996E8E7
:10163000A1E081509040A040E1F700C000000E946E
:10164000080D0E94C90A81E00E942307789408953A
:101650004F925F926F927F928F929F92AF92BF92C2
:10166000CF92DF92EF92FF920F931F93DF93CF936E
:10167000CDB7DEB760970FB6F894DEBF0FBECDBF13
:101680000E940410A1E6B0E08C918E7F8C93E2E67C
:10169000F0E080818E7F80838C918D7F8C93808120
:1016A0008D7F80838C918B7F8C9380818B7F8083D7
:1016B000CC2400E010E0FF240F2EFAE06F2E7724F8
:1016C000F02D4E010894811C911C0F2EF2E44F2E38
:1016D000F1E05F2EF02D80916D0190916E018017E9
:1016E000910708F442C000916D0110916E010C59F0
:1016F0001F4F80E00E94F4065C0181E00E94060713
:10170000E82E82E00E940607D82EC5010E943A10FA
:101710005C018E2D0E945B108D2D0E946610C5010C
:10172000B3010E94171180E090E00E94A2100E9475
:101730007110DC01CB01B401A3010E944D110E9484
:10174000350A81E061E00E94170AC2010E94AC0ADA
:1017500082E061E00E94170AC4010E94AC0AC394AF
:101760008C2D853029F08A3041F0FF2039F002C0FD
:10177000FF24F394AD9A85B3AECFCC24AD9885B356
:10178000FF24A9CF8FEF81BB84BB0E94350A81E083
:1017900061E00E94170A82E591E00E94AC0A089578
:1017A000EF92FF920F931F93CF93DF93889A9098B5
:1017B000919A8A9A929A8B9A8C9A9398949A83B1D6
:1017C0008C6183B980918C018E7F80938C01809194
:1017D0008C018170880F880F90918C019B7F892BE1
:1017E00080938C0180918C018695827090918C0100
:1017F0009D7F892B80938C010E94C20B0E94FD0A61
:10180000EE24FF246894E1F8C1E0D0E012E001E0AA
:101810008091600190E090938E0180938D012091E2
:101820006401213009F448C0213020F0223009F051
:10183000A7C08EC0819907C090938B0180938A01C5
:10184000109364019DC0009781F420918A0130912A
:101850008B012115310559F110928B0110928A01EB
:10186000009364019298909A8BC082309105F9F4AC
:1018700020918A0130918B0122303105C1F0F09224
:101880008B01E0928A0180918C0180FF03C09398C4
:10189000949A02C0939A949890918C019170902799
:1018A00080918C018E7F892B80938C0169C09093ED
:1018B0008B0180938A0164C0819916C090988091B1
:1018C0008C018D7F80938C0180918C018B7F809324
:1018D0008C0180918D0190918E0190938B0180936A
:1018E0008A01109364014CC08130910589F42091E4
:1018F0008A0130918B012130310529F1D0938B0180
:10190000C0938A0180918C01826080938C0138C0E1
:1019100082309105C1F420918A0130918B012230EF
:10192000310589F0F0928B01E0928A01F894809160
:101930008C01826080938C0180918C018460809303
:101940008C0178941DC090938B0180938A0118C0FC
:10195000819B12C08130910579F420918A013091E8
:101960008B012130310541F0D0938B01C0938A0166
:1019700010926401929A04C090938B0180938A0123
:101980000E94280B45CFDF93CF930F92CDB7DEB7E0
:101990006983AB98A898882319F0A99A85B302C0E7
:1019A000A99885B3A89A87E090E0FE013196A8989F
:1019B000208130E0082E02C0359527950A94E2F781
:1019C00020FF03C0A99A25B302C0A99825B3A89AFD
:1019D00001972FEF8F3F920751F7AB9A0F90CF915E
:1019E000DF9108951F93182F6F70606B80E00E9445
:1019F000C30C612F6F7080E00E94C30C612F629551
:101A00006F706770606180E00E94C30C1F91089541
:101A1000FF920F931F9380E060E00E94F20C80E041
:101A20006EEA0E94C30C00E00F2EF0E6FF2EF02DB0
:101A300009C081E060E00E94C30C1150D1F70F5F34
:101A4000093011F01F2DF5CF80E06FEA0E94C30C22
:101A50001F910F91FF900895A39AAB9AA19AA9980C
:101A6000A09AA898A29AAA98AB9883ED90E30197C0
:101A7000F1F700C00000AA9A80E063E20E94C30C64
:101A800080E060E90E94C30C80E064EA0E94C30C1D
:101A900080E06FE20E94C30C80E060E40E94C30C0F
:101AA00080E060EB0E94C30C80E060E10E94C30C08
:101AB00080E060E00E94C30C80E068EC0E94C30CF0
:101AC00080E061EA0E94C30C80E06CEA0E94C30CD3
:101AD00080E067E00E94C30C80E06FEA0E94C30CC4
:101AE0000E94080D80E067EA0E94C30C8FE996E827
:101AF000A1E081509040A040E1F700C0000080E0EC
:101B000066EA0E94C30C8FE996E8A1E081509040FC
:101B1000A040E1F700C00000089508951F93182F1A
:101B200080E061E20E94C30C612F606880E00E9447
:101B3000C30C80E060E20E94C30C1F9108950895D9
:101B400008950895089508950F931F93CF93DF93F9
:101B500005E0809F80011124E801C451D0400F505E
:101B60001040FE016491660F81E00E94C30C219633
:101B7000C017D107B1F781E060E00E94C30CDF918C
:101B8000CF911F910F910895CF93DF93EC0180E0E7
:101B90006EEA0E94C30C8881882331F021960E944E
:101BA000A40D89918823D9F780E06FEA0E94C30CC5
:101BB000DF91CF9108958823C4F08095282F30E0DD
:101BC000220F331F2F5F304070E0269FC001279FF8
:101BD000900D369F900D1124892F992781509F4F8A
:101BE000969587958F5F80950895282F30E0220F76
:101BF000331F2F5F304070E0269FC001279F900D5C
:101C0000369F900D1124892F992781509F4F9695CB
:101C100087958F5F08951F920F920FB60F920BB6A4
:101C20000F921124CF92DF92EF92FF921F932F9386
:101C30003F934F935F936F937F938F939F93AF9354
:101C4000BF93EF93FF938091690190916A0123E024
:101C50008C31920730F080916B01805F80936B0133
:101C60002EC08091690190916A0122E0843592072B
:101C700030F080916B01885F80936B0120C0809170
:101C8000690190916A0121E08C38920730F08091CF
:101C90006B018C5F80936B0112C080916901909100
:101CA0006A01843C910530F080916B018E5F8093D6
:101CB0006B0105C080916B018F5F80936B018091F8
:101CC000690190916A0121E08F3E920708F438C0C3
:101CD00080918C0180FF14C0E0916B01F0E0E45929
:101CE000FC4FE491F0E0FBBDEABDE0916B01EC5AE2
:101CF000F0E0E459FC4FE491F0E0F9BDE8BD13C019
:101D0000E0916B01F0E0E459FC4FE491F0E0F9BDA3
:101D1000E8BDE0916B01EC5AF0E0E459FC4FE4912E
:101D2000F0E0FBBDEABDE0916B01E655F0E0E4595F
:101D3000FC4FE491F0E0F0937900E093780096C0D6
:101D40008091690190916A018036910508F047C041
:101D500080918C0180FF1AC0E0916B01F0E0E459A2
:101D6000FC4F849169E10E94DB0D90E09BBD8ABD30
:101D7000E0916B01EC5AF0E0E459FC4F849169E189
:101D80000E94DB0D90E099BD88BD19C0E0916B0108
:101D9000F0E0E459FC4F849169E10E94DB0D90E092
:101DA00099BD88BDE0916B01EC5AF0E0E459FC4F1D
:101DB000849169E10E94DB0D90E09BBD8ABDE091BA
:101DC0006B01E655F0E0E459FC4F849169E10E9413
:101DD000DB0D90E0909379008093780047C02091CC
:101DE000690130916A01E0916B01F0E0E459FC4F28
:101DF00014912F55304046EE50E00E94081120E922
:101E000031E040E050E00E942B110F2EF9E1CF2E7F
:101E1000F0E0DF2EF0E0EF2EF0E0FF2EF02DC20E0E
:101E2000D31EE41EF51E812F6C2D0E94DB0D90E069
:101E30009BBD8ABDE0916B01EC5AF0E0E459FC4F88
:101E400084916C2D0E94DB0D90E099BD88BDE091DE
:101E50006B01E655F0E0E459FC4F84916C2D0E9433
:101E6000DB0D90E09093790080937800FF91EF91E3
:101E7000BF91AF919F918F917F916F915F914F91A2
:101E80003F912F911F91FF90EF90DF90CF900F9097
:101E90000BBE0F900FBE0F901F9018951F920F92C0
:101EA0000FB60F920BB60F9211242F933F938F937F
:101EB0009F93EF93FF932091690130916A01809184
:101EC00067019091680128173907B8F410926F01E3
:101ED000809170018F5F80937001909162018917EA
:101EE00090F1109270018091690190916A010196C0
:101EF00090936A018093690126C020916901309115
:101F00006A01809167019091680182179307B8F484
:101F10001092700180916F018F5F80936F0190919B
:101F20006301891780F010926F018091690190918F
:101F30006A01019790936A018093690104C010922D
:101F4000700110926F018091690190916A01009770
:101F500081F1E0916901F0916A01EE0FFF1FE459F0
:101F6000FA4F859194910197909387008093860012
:101F700080916C01882391F58FB580688FBD8FB5F6
:101F800080628FBD8FB588608FBD81E080936C01CA
:101F9000EAE8F0E08081887F81608083ECE7F0E010
:101FA000808180618083EDE7F0E0808180618083C3
:101FB00015C08FB58F778FBD8FB58F7D8FBD8FB5D6
:101FC000877F8FBD10926C01EAE8F0E08081887F06
:101FD0008083EDE7F0E080818F7E808380916D01CA
:101FE00090916E01019690936E0180936D01FF9127
:101FF000EF919F918F913F912F910F900BBE0F907A
:102000000FBE0F901F901895BD9A8FB58F778FBD1B
:10201000BE9A8FB58F7D8FBDBF9A8FB5877F8FBDDD
:1020200080916B0190E09BBD8ABD80916B018C5AC1
:1020300090E099BD88BD80916B01865590E09093AA
:1020400079008093780081E08FBD8EB5887F8160B4
:102050008EBD83E080938B0088E180938A008CE7BB
:1020600083BD8BE085BD86B7806886BF87B78068F3
:1020700087BF08958E30910528F410926801109260
:10208000670110C023E0823F920730F40D979093D0
:1020900068018093670106C084EE93E09093680125
:1020A0008093670120916701309168012C5F3F4F59
:1020B000822F932F0895882319F08093620103C023
:1020C00081E080936201809162010895882319F074
:1020D0008093630103C081E0809363018091630179
:1020E000089504D06894B1118DC0089570D088F01F
:1020F0009F5790F0B92F9927B751A0F0D1F0660FF4
:10210000771F881F991F1AF0BA95C9F712C0B1300E
:1021100081F077D0B1E0089574C0672F782F8827B9
:10212000B85F39F0B93FCCF3869577956795B3954D
:10213000D9F73EF490958095709561957F4F8F4FBC
:102140009F4F0895E89409C097FB3EF490958095C1
:10215000709561957F4F8F4F9F4F9923A9F0F92F6D
:1021600096E9BB279395F695879577956795B795EB
:10217000F111F8CFFAF4BB0F11F460FF1BC06F5FD1
:102180007F4F8F4F9F4F16C0882311F096E911C0E3
:10219000772321F09EE8872F762F05C0662371F004
:1021A00096E8862F70E060E02AF09A95660F771F18
:1021B000881FDAF7880F9695879597F9089557FD48
:1021C0009058440F551F59F05F3F71F04795880FA5
:1021D00097FB991F61F09F3F79F08795089512163C
:1021E00013061406551FF2CF4695F1DF08C01616E8
:1021F00017061806991FF1CF869571056105089499
:102200000895E894BB2766277727CB0197F90895AF
:10221000539FC001429FB001529F700D811D112438
:10222000911D349F700D811D1124911D0895AA1BCD
:10223000BB1B51E107C0AA1FBB1FA617B70710F0B1
:10224000A61BB70B881F991F5A95A9F780959095E3
:10225000BC01CD010895A1E21A2EAA1BBB1BFD01F2
:102260000DC0AA1FBB1FEE1FFF1FA217B307E40775
:10227000F50720F0A21BB30BE40BF50B661F771FCD
:10228000881F991F1A9469F76095709580959095AD
:102290009B01AC01BD01CF010895FB019F01E894B2
:1022A0004230C4F04532B4F44A3029F497FB1EF4AE
:1022B000909581959F4F642F77270E941711805D1D
:1022C0008A330CF0895D8193CB010097A1F716F456
:1022D0005DE251931082C9010C946E11DC01FC0186
:1022E000672F71917723E1F7329704C07C916D934A
:1022F00070836291AE17BF07C8F30895F894FFCFBB
:1023000020205350574D20746573742121210062A1
:1023100079203A004E6F757262616B68736820268F
:1023200020656C6173612E697200436F7079726908
:102330006768743A00202020204F5A48414E204BB5
:1023400044004672657175656E6379206973203A41
:102350002000456C6173612E6972205465737400AE
:04236000031901015B
:00000001FF
