:100000000C9474070C9493070C9493070C94930727
:100010000C9493070C9437110C9470110C94AA1142
:100020000C9493070C94B6140C9493070C949307B8
:100030000C9493070C9493070C9493070C949307D8
:100040000C9493070C9493070C9493070C949307C8
:100050000C9493070C94E6070C9493070C94930765
:100060000C9493070C9493070C9458130C949307D7
:100070000C9493070C9493070C9493070C94930798
:100080000C9493070C9493070C9493074545505296
:100090004F4D20777269746520646174615F31200F
:1000A0006661696C65642E2E00454550524F4D20A7
:1000B00077726974652D32206661696C65642E2ED5
:1000C00000454550524F4D2077726974652D31209F
:1000D0006661696C65642E2E00454550524F4D2077
:1000E00073656E644164647265737331206661691F
:1000F0006C65642E2E006932632073746172742003
:100100006661696C65642E2E00576169742E2E2E0F
:1001100000454550524F4D207772697465206461E7
:1001200074615F31206661696C65642E2E004545FF
:1001300050524F4D2077726974652D322066616987
:100140006C65642E2E00454550524F4D20777269E4
:1001500074652D31206661696C65642E2E004545FD
:1001600050524F4D2073656E6441646472657373C1
:1001700031206661696C65642E2E006932632073DC
:1001800074617274206661696C65642E2E00454549
:1001900050524F4D207265636569766520666169CE
:1001A0006C65642E2E00454550524F4D2073656E90
:1001B000644164647265737332206661696C65645E
:1001C0002E2E00693263207265706561742D737420
:1001D000617274206661696C65642E2E004545501D
:1001E000524F4D2077726974652D32206661696CBB
:1001F00065642E2E00454550524F4D20777269742C
:10020000652D31206661696C65642E2E0045455070
:10021000524F4D2073656E6441646472657373312F
:10022000206661696C65642E2E00693263207374E8
:10023000617274206661696C65642E2E0000000096
:10024000000000005F00000007000700147F147F1B
:1002500014242A7F2A122313086462364955225037
:100260000005030000001C2241000041221C000880
:100270002A1C2A0808083E08080050300000080818
:10028000080808003030000020100804023E5149E0
:10029000453E00427F400042615149462141454B65
:1002A000311814127F1027454545393C4A494930D9
:1002B00001710905033649494936064949291E0095
:1002C000363600000056360000000814224114148F
:1002D000141414412214080002015109063249790C
:1002E000413E7E1111117E7F494949363E414141CF
:1002F000227F4141221C7F494949417F090901016F
:100300003E414151327F0808087F00417F41002073
:1003100040413F017F081422417F404040407F021E
:1003200004027F7F0408107F3E4141413E7F09095E
:1003300009063E4151215E7F09192946464949492E
:100340003101017F01013F4040403F1F2040201FFD
:100350007F2018207F63140814630304780403616A
:100360005149454300007F414102040810204141AA
:100370007F000004020102044040404040000102AE
:10038000040020545454787F48444438384444444A
:1003900020384444487F3854545418087E090102D8
:1003A000081454543C7F0804047800447D40002025
:1003B00040443D00007F10284400417F40007C0401
:1003C0001804787C0804047838444444387C1414B5
:1003D0001408081414187C7C080404084854545465
:1003E00020043F4440203C4040207C1C2040201CF6
:1003F0003C4030403C44281028440C5050503C4471
:1004000064544C44000836410000007F0000004165
:1004100036080008082A1C08081C2A080880838659
:10042000898C8F9295989C9FA2A5A8ABAEB0B3B6CD
:10043000B9BCBFC1C4C7C9CCCED1D3D5D8DADCDEF4
:10044000E0E2E4E6E8EAECEDEFF0F2F3F5F6F7F8D7
:10045000F9FAFBFCFCFDFEFEFFFFFFFFFFFFFFFFC5
:10046000FFFFFFFEFEFDFCFCFBFAF9F8F7F6F5F3E3
:10047000F2F0EFEDECEAE8E6E4E2E0DEDCDAD8D533
:10048000D3D1CECCC9C7C4C1BFBCB9B6B3B0AEAB73
:10049000A8A5A29F9C9895928F8C898683807C7951
:1004A0007673706D6A6763605D5A5754514F4C495B
:1004B0004643403E3B383633312E2C2A2725232114
:1004C0001F1D1B1917151312100F0D0C0A09080711
:1004D0000605040303020101000000000000000003
:1004E00000000001010203030405060708090A0CC5
:1004F0000D0F1012131517191B1D1F212325272A55
:100500002C2E313336383B3E404346494C4F5154F4
:10051000575A5D6063676A6D707376797C808386F5
:10052000898C8F9295989C9FA2A5A8ABAEB0B3B6CC
:10053000B9BCBFC1C4C7C9CCCED1D3D5D8DADCDEF3
:10054000E0E2E4E6E8EAECEDEFF0F2F3F5F6F7F8D6
:10055000F9FAFBFCFCFDFEFEFFFFFFFFFFFFFFFFC4
:10056000FFFFFFFEFEFDFCFCFBFAF9F8F7F6F5F3E2
:10057000F2F0EFEDECEAE8E6E4E2E0DEDCDAD8D532
:10058000D3D1CECCC9C7C4C1BFBCB9B6B3B0AEAB72
:10059000A8A5A29F9C9895928F8C898683807C7950
:1005A0007673706D6A6763605D5A5754514F4C495A
:1005B0004643403E3B383633312E2C2A2725232113
:1005C0001F1D1B1917151312100F0D0C0A09080710
:1005D0000605040303020101000000000000000002
:1005E00000000001010203030405060708090A0CC4
:1005F0000D0F1012131517191B1D1F212325272A54
:100600002C2E313336383B3E404346494C4F5154F3
:10061000575A5D6063676A6D707376797C0005096F
:100620000E13171C21252A2F33383C41464A4F53BD
:10063000575C6064696D71757A7E82868A8E929548
:10064000999DA1A4A8ABAFB2B5B9BCBFC2C5C8CB78
:10065000CED0D3D6D8DBDDDFE2E4E6E8EAECEDEF9E
:10066000F1F2F4F5F6F7F8F9FAFBFCFDFDFEFEFFFA
:10067000FFFFFFFFFFFFFEFEFEFDFCFCFBFAF9F8AB
:10068000F7F6F4F3F2F0EEEDEBE9E7E5E3E1DFDCBA
:10069000DAD7D5D2D0CDCAC7C4C1BEBBB8B4B1AE0B
:1006A000AAA7A39F9C9894908C8884807C7874706F
:1006B0006C67635F5A56514D49443F3B36322D2992
:1006C000241F1B16110D0803FEFAF5F0ECE7E2DE1D
:1006D000D9D4D0CBC7C2BDB9B4B0ACA7A39E9A96AB
:1006E000928D8985817D7975716D6966625E5B57D2
:1006F00054504D494643403D3A3734312F2C292739
:100700002422201E1C1918161412100F0D0C0B0990
:100710000807060504040303020201010100002486
:10072000F473CB63AE9798A287127AF96EBA65E636
:100730005D315761514B4CCE47D1433F40093D217C
:100740003A7D371335DD32D430F32E362D992B1800
:100750002AB12861272626FE24E723E122E921FE8B
:100760002020204D1F851EC61D101D631CBE1B2092
:100770001B891AF9196E19EA186A18EF177A1708FF
:10078000179B163216CC156A150C15B114581403A4
:1007900014B01360131313C8127F123812F411B17E
:1007A0001170113111F410B9107F1047101010DAC8
:1007B0000FA60F740F420F120FE30EB50E880E5CDA
:1007C0000E320E080EDF0DB70D900D6A0D450D208F
:1007D0000DFC0CD90CB70C960C750C550C350C1681
:1007E0000CF80BDA0BBD0BA00B840B690B4E0B3313
:1007F0000B190BFF0AE60ACD0AB50A9D0A860A6F95
:100800000A580A420A2C0A170A010AED09D809C433
:1008100009B0099D0989097609640951093F092E22
:10082000091C090B09FA08E908D808C808B808A87B
:1008300008990889087A086B085C084E083F083157
:1008400008230816080808FA07ED07E007D307C6CB
:1008500007BA07AD07A107950789077D07710766E6
:10086000075B074F07440739072E07230719070EB1
:10087000070407FA06F006E606DC06D206C806BF3D
:1008800006B506AC06A2069906900687067E067592
:10089000066D0664065C0653064B0643063A0632AE
:1008A000062A062206350C250C160C070CF80BE957
:1008B0000BDA0BCB0BBD0BAE0BA00B920B840B76A4
:1008C0000B690B5B0B4E0B400B330B260B190B0C00
:1008D0000BFF0AF30AE60ADA0ACD0AC10AB50AA929
:1008E0000A9D0A920A860A7A0A6F0A640A580A4D11
:1008F0000A420A370A2C0A210A170A0C0A010AF7C7
:1009000009ED09E209D809CE09C409BA09B009A656
:10091000099D0993098909800976096D0964095BB4
:1009200009510948093F0936092E0925091C0913EF
:10093000090B090209FA08F108E908E108D808D00A
:1009400008C808C008B808B008A808A00899089105
:1009500008890882087A0873086B0864085C0855DF
:10096000084E0847083F08380831082A0823081CA1
:100970000816080F0808080108FA07F407ED07E74A
:1009800007E007DA07D307CD07C607C007BA07B4E1
:1009900007AD07A707A1079B0795078F078907835F
:1009A000077D07770771076C07660760075B0755C8
:1009B000074F074A0744073F07390734072E07291F
:1009C0000723071E07190714070E0709070407FF67
:1009D00006FA06F506F006EB06E606E106DC06D7A3
:1009E00006D206CD06C806C306BF06BA06B506B0CF
:1009F00006AC06A706A2069E069906950690068CEA
:100A000006870683067E067A06750671066D0668F9
:100A100006640660065C06570653064F064B0647FB
:100A20000643063E063A06360632062E062A0626F5
:100A30000622061E06350C2D0C250C1E0C160C0E5F
:100A40000C070CFF0BF80BF00BE90BE10BDA0BD3E7
:100A50000BCB0BC40BBD0BB60BAE0BA70BA00B99AE
:100A60000B920B8B0B840B7D0B760B6F0B690B6260
:100A70000B5B0B540B4E0B470B400B3A0B330B2C01
:100A80000B260B1F0B190B120B0C0B060BFF0AF995
:100A90000AF30AEC0AE60AE00ADA0AD40ACD0AC71F
:100AA0000AC10ABB0AB50AAF0AA90AA30A9D0A9796
:100AB0000A920A8C0A860A800A7A0A750A6F0A69FB
:100AC0000A640A5E0A580A530A4D0A480A420A3D55
:100AD0000A370A320A2C0A270A210A1C0A170A11A5
:100AE0000A0C0A070A010AFC09F709F209ED09E7ED
:100AF00009E209DD09D809D309CE09C909C409BF2A
:100B000009BA09B509B009AB09A609A1099D099857
:100B10000993098E098909850980097B097609727B
:100B2000096D09680964095F095B09560951094D96
:100B300009480944093F093B09360932092E0929A8
:100B400009250920091C09180913090F090B0907B0
:100B5000090209FE08FA08F608F108ED08E908E5B7
:100B600008E108DD08D808D408D008CC08C808C4B3
:100B700008C008BC08B808B408B008AC08A808A4A5
:100B800008A0089D089908950891088D088908868D
:100B90000882087E087A08760873086F086B086771
:100BA00008640860085C085908550851084E084A4E
:100BB00008470843083F083C083808350831082E24
:100BC000082A08270847104010391032102B10242B
:100BD000101D101710101009100210FC0FF50FEE69
:100BE0000FE80FE10FDA0FD40FCD0FC70FC00FBA08
:100BF0000FB30FAD0FA60FA00F9A0F930F8D0F8796
:100C00000F800F7A0F740F6D0F670F610F5B0F5519
:100C10000F4E0F480F420F3C0F360F300F2A0F2494
:100C20000F1E0F180F120F0C0F060F000FFA0EF405
:100C30000EEF0EE90EE30EDD0ED70ED20ECC0EC671
:100C40000EC00EBB0EB50EAF0EAA0EA40E9F0E99CF
:100C50000E930E8E0E880E830E7D0E780E720E6D24
:100C60000E670E620E5C0E570E520E4C0E470E4271
:100C70000E3C0E370E320E2C0E270E220E1D0E18B5
:100C80000E120E0D0E080E030EFE0DF90DF30DEEF5
:100C90000DE90DE40DDF0DDA0DD50DD00DCB0DC630
:100CA0000DC10DBC0DB70DB20DAD0DA90DA40D9F5D
:100CB0000D9A0D950D900D8B0D870D820D7D0D7884
:100CC0000D740D6F0D6A0D650D610D5C0D570D53A3
:100CD0000D4E0D490D450D400D3C0D370D320D2EBD
:100CE0000D290D250D200D1C0D170D130D0E0D0AD0
:100CF0000D050D010DFC0CF80CF40CEF0CEB0CE7E2
:100D00000CE20CDE0CD90CD50CD10CCD0CC80CC4EB
:100D10000CC00CBB0CB70CB30CAF0CAB0CA60CA2EC
:100D20000C9E0C9A0C960C920C8D0C890C850C81E7
:100D30000C7D0C790C750C710C6D0C690C650C61DB
:100D40000C5D0C590C550C510C4D0C490C450C41CB
:100D50000C3D0C390C6A1862185A1853184B18437A
:100D6000183B1834182C1824181D1815180E1806BE
:100D700018FF17F717EF17E817E017D917D217CA98
:100D800017C317BB17B417AD17A5179E1797178F63
:100D900017881781177A1772176B1764175D175624
:100DA000174F1747174017391732172B1724171DDE
:100DB0001716170F1708170117FA16F316ED16E690
:100DC00016DF16D816D116CA16C416BD16B616AF3B
:100DD00016A816A2169B1694168E16871680167ADB
:100DE0001673166D1666165F16591652164C164572
:100DF000163F16381632162B1625161F1618161201
:100E0000160B160516FF15F815F215EC15E515DF8E
:100E100015D915D315CC15C615C015BA15B415AD11
:100E200015A715A1159B1595158F15891583157D8A
:100E300015771570156A1564155E15581553154DFF
:100E400015471541153B1535152F15291523151D6A
:100E500015181512150C1506150015FB14F514EFD1
:100E600014E914E414DE14D814D214CD14C714C138
:100E700014BC14B614B114AB14A514A0149A149590
:100E8000148F148A1484147F14791474146E1469E2
:100E90001463145E14581453144E14481443143D30
:100EA00014381433142D14281423141D1418141377
:100EB000140D1408140314FE13F813F313EE13E9BE
:100EC00013E413DE13D913D413CF13CA13C513C0FD
:100ED00013BB13B513B013AB13A613A1139C139735
:100EE0001392138D1388130011241FBECFEFD0E18E
:100EF000DEBFCDBF13E0A0E0B1E0EEE2F8E300E03A
:100F00000BBF02C007900D92A831B107D9F713E0CB
:100F1000A8E1B3E001C01D92A934B107E1F70E9436
:100F200001110C94151C0C94000035980895359A05
:100F300008953D9808953D9A0895379A08953398F5
:100F40003798089596B1987F892B86B9089597B1FF
:100F50008295880F880F807C9F73982B97B908958E
:100F60000E949D070E94950786E00E94A20781E0EB
:100F70000E94A7070E94990710922503339A78943C
:100F8000089597B18F71907E982B97B90895349AF0
:100F9000369A089586B1807408951092250397B10A
:100FA0008F71907E982B97B9349A369A8091250349
:100FB0008823E1F324B135B1822F932F08950E9445
:100FC000CD07969587959695879508951F920F92D0
:100FD0000FB60F9211248F9381E0809325038F9198
:100FE0000F900FBE0F901F901895F8947894089565
:100FF000E4E7F0E0108282E18093700010927100CB
:1010000084E480830895F8941CBE10926D000E94C1
:10101000F5070E94E9150E94F80715BE10926A00B4
:101020001ABE19BE17BE10927D000895CF92DF92AE
:10103000FF920F931F93CF93DF93182F062FF42E59
:101040000E948D09813041F48AE292E00E94FE15EF
:101050000E94FE0981E07AC080EA90E00E94AD091A
:10106000813041F48DE092E00E94FE150E94FE095D
:1010700081E06CC0812F90E00E94C809813041F46A
:1010800085EF91E00E94FE150E94FE0981E05EC09E
:10109000802F90E00E94C809813041F48DED91E0ED
:1010A0000E94FE150E94FE0981E050C00E949D0929
:1010B000813041F483EC91E00E94FE150E94FE090C
:1010C00081E044C081EA90E00E94AD09813019F0CE
:1010D000FF2049F432C086EA91E00E94FE150E948A
:1010E000FE0981E033C0C0E0D0E0CF2CDD240894BD
:1010F000C108D1080C2FCC15DD0521F40E94EC09A4
:10110000182F03C00E94DA09182F1E3741F48EE809
:1011100091E00E94FE150E94FE0981E017C00F7049
:1011200031F48DE00E94FA158AE00E94FA15812FB1
:101130000E94FA152196CF15E8F28DE00E94FA156B
:101140008AE00E94FA150E94FE0980E0DF91CF91AB
:101150001F910F91FF90DF90CF900895FF920F9312
:101160001F93082FF62E142F0E948D09813041F411
:101170008BE791E00E94FE150E94FE0981E040C0CD
:1011800080EA90E00E94AD09813041F48EE591E063
:101190000E94FE150E94FE0981E032C0802F90E07F
:1011A0000E94C809813041F486E491E00E94FE1556
:1011B0000E94FE0981E024C08F2D90E00E94C809A2
:1011C0008130C9F48EE291E00E94FE150E94FE0972
:1011D00081E016C0812F0E94FA15812F90E00E94B5
:1011E000C809813089F481E191E00E94FE150E94D6
:1011F000FE0981E005C01D3069F70E94FE0980E00C
:101200001F910F91FF900895812F0E94FA15E5CF4D
:10121000BC010024769567950794769567950794A9
:10122000762F602D872F40E40E9416080895462FE0
:101230009C010024369527950794369527950794A9
:10124000322F202D832F622F0E94AE080895CF9356
:10125000DF938DE00E94FA158AE00E94FA158DE076
:101260000E94FA158AE00E94FA1589E091E00E9436
:10127000FE158DE00E94FA158AE00E94FA150E9480
:101280008D09813041F486EF90E00E94FE150E94A6
:10129000FE0981E03FC080EA90E00E94AD09813004
:1012A00041F489ED90E00E94FE150E94FE0981E064
:1012B00031C080E090E00E94C809813041F481ECA7
:1012C00090E00E94FE150E94FE0981E023C080E0AC
:1012D00090E00E94C809813041F489EA90E00E94C0
:1012E000FE150E94FE0981E015C0C0E0D0E08FEF3E
:1012F00090E00E94C809813041F48CE890E00E949F
:10130000FE150E94FE0981E005C0219682F70E9429
:10131000FE0980E0DF91CF91089584EA8093740004
:10132000E4E7F0E080818823ECF790917100987FEA
:1013300081E0983009F480E0089584EA8093740095
:10134000E4E7F0E080818823ECF790917100987FCA
:1013500081E0903109F480E0089580FD02C028E129
:1013600001C020E48093730084E880937400E4E774
:10137000F0E080818823ECF74091710050E0487FD5
:10138000507030E081E04217530709F480E008957F
:101390008093730084E880937400E4E7F0E0808138
:1013A0008823ECF790917100987F81E0983209F4DE
:1013B00080E0089584EC80937400E4E7F0E080819D
:1013C0008823ECF780917100887F803519F4809133
:1013D000730008958EE7089584E880937400E4E72D
:1013E000F0E080818823ECF780917100887F883558
:1013F00019F48091730008958EE7089584E980932D
:1014000074000895A79AAF98A59AAD98A69AAE9839
:101410000895882391F090E0AF9AE7E9FAE33197D5
:10142000F1F700C00000AF98E7ECFFEA3197F1F761
:1014300000C000009F5F981778F30895611571054B
:1014400009F0A0C0009711F4D89808958130910553
:1014500011F4D99808958230910511F4DA9808951D
:101460008330910511F4DB9808958430910511F4CF
:10147000DC9808958530910511F4DD980895863043
:10148000910511F4DE9808958730910511F4DF98E5
:1014900008958A30910511F4C09808958B30910514
:1014A00011F4C19808958C30910511F4C2980895F3
:1014B0008D30910511F4C39808958E30910511F483
:1014C000C49808958F30910511F4C598089580311E
:1014D000910511F4C69808958131910511F4C798CA
:1014E00008958431910511F4A898089585319105E6
:1014F00011F4A99808958631910511F4AA980895D8
:101500008731910511F4AB9808958831910511F454
:10151000AC9808958931910511F4AD9808958A31F8
:10152000910511F4AE9808958B31910511F4AF989F
:1015300008958E31910511F4909808958F31910599
:1015400011F4919808958032910511F492980895BC
:101550008132910511F4939808958232910511F426
:10156000949808958332910511F4959808958432E2
:10157000910511F4969808958532910509F0A0C05F
:1015800097980895009711F4D89A0895813091059D
:1015900011F4D99A08958230910511F4DA9A0895D8
:1015A0008330910511F4DB9A08958430910511F48C
:1015B000DC9A08958530910511F4DD9A08958630FE
:1015C000910511F4DE9A08958730910511F4DF9AA0
:1015D00008958A30910511F4C09A08958B309105D1
:1015E00011F4C19A08958C30910511F4C29A0895AE
:1015F0008D30910511F4C39A08958E30910511F440
:10160000C49A08958F30910511F4C59A08958031D8
:10161000910511F4C69A08958131910511F4C79A84
:1016200008958431910511F4A89A089585319105A2
:1016300011F4A99A08958631910511F4AA9A089592
:101640008731910511F4AB9A08958831910511F411
:10165000AC9A08958931910511F4AD9A08958A31B3
:10166000910511F4AE9A08958B31910511F4AF9A5A
:1016700008958E31910511F4909A08958F31910556
:1016800011F4919A08958032910511F4929A089577
:101690008132910511F4939A08958232910511F4E3
:1016A000949A08958332910511F4959A089584329D
:1016B000910511F4969A08958532910509F4979A47
:1016C00008950F931F93082F182F80FF07C080E005
:1016D00090E061E070E00E941E0A06C080E090E0A9
:1016E00060E070E00E941E0A11FF07C081E090E0F8
:1016F00061E070E00E941E0A06C081E090E060E0B8
:1017000070E00E941E0A12FF07C082E090E061E0D4
:1017100070E00E941E0A06C082E090E060E070E087
:101720000E941E0A13FF07C083E090E061E070E0B2
:101730000E941E0A06C083E090E060E070E00E9414
:101740001E0A14FF07C088E190E061E070E00E948B
:101750001E0A06C088E190E060E070E00E941E0A68
:1017600015FF07C089E190E061E070E00E941E0A69
:1017700006C089E190E060E070E00E941E0A16FF5A
:1017800007C08AE190E061E070E00E941E0A06C096
:101790008AE190E060E070E00E941E0A00233CF4C1
:1017A0008BE190E061E070E00E941E0A06C08BE1D0
:1017B00090E060E070E00E941E0A1F910F91089572
:1017C0001F93182F86E190E060E070E00E941E0AEF
:1017D000812F0E94610B87E190E061E070E00E9440
:1017E0001E0A89EF90E00197F1F700C0000087E141
:1017F00090E060E070E00E941E0A89EF90E001979F
:10180000F1F700C000001F91089581E00E94E00BF5
:101810000895813029F4862F80580E94E00B0895A6
:10182000823021F4862F80540E94E00B089586E1D7
:1018300090E060E070E00E941E0A87E190E060E0C6
:1018400070E00E941E0A87E893E10197F1F700C05B
:10185000000080E30E94E00B81EE94E00197F1F735
:1018600000C0000080E30E94E00B89EF90E0019748
:10187000F1F700C0000080E30E94E00B83EC99E0E8
:101880000197F1F700C0000088E30E94E00B8CE0B4
:101890000E94E00B81E00E94E00B86E00E94E00BDA
:1018A00008951F93182F86E190E061E070E00E9498
:1018B0001E0A812F0E94610B87E190E061E070E0D9
:1018C0000E941E0A89EF90E00197F1F700C0000026
:1018D00087E190E060E070E00E941E0A89EF90E0EE
:1018E0000197F1F700C000001F910895CF93DF9397
:1018F000EC018881882331F021960E94510C899156
:101900008823D9F7DF91CF9108958CE10E94E00BF5
:10191000089588E10E94E00B0895CF93DF93C82FCC
:10192000D0E0CE0180FF07C088E190E061E070E088
:101930000E941E0A06C088E190E060E070E00E940C
:101940001E0AC1FF07C089E190E061E070E00E94DB
:101950001E0A06C089E190E060E070E00E941E0A65
:10196000C2FF07C08AE190E061E070E00E941E0AB9
:1019700006C08AE190E060E070E00E941E0AC3FFAA
:1019800007C08BE190E061E070E00E941E0A06C093
:101990008BE190E060E070E00E941E0ADF91CF9141
:1019A00008951F93182F86E190E060E070E00E9498
:1019B0001E0A812F0E948D0C87E190E061E070E0AB
:1019C0000E941E0A89EF90E00197F1F700C0000025
:1019D00087E190E060E070E00E941E0A89EF90E0ED
:1019E0000197F1F700C000001F91089580E00E9468
:1019F000D10C81E00E94D10C08951F93813061F4D5
:101A0000162F1058812F82958F700E94D10C812F34
:101A10008F700E94D10C0DC0823059F4162F1054D3
:101A2000812F82958F700E94D10C812F8F700E9420
:101A3000D10C1F91089580E00E948D0C87E893E1FE
:101A40000197F1F700C0000083E00E94D10C81EE05
:101A500094E00197F1F700C0000083E00E94D10CF0
:101A60008DEB9AE00197F1F700C0000083E00E943F
:101A7000D10C82E00E94D10C82E00E94D10C88E05F
:101A80000E94D10C80E00E94D10C8CE00E94D10C0D
:101A900080E00E94D10C86E00E94D10C08951F9333
:101AA000182F86E190E061E070E00E941E0A812F0D
:101AB00082958F700E948D0C87E190E061E070E06C
:101AC0000E941E0A89EF90E00197F1F700C0000024
:101AD00087E190E060E070E00E941E0A89EF90E0EC
:101AE0000197F1F700C00000812F8F700E948D0CCC
:101AF00087E190E061E070E00E941E0A89EF90E0CB
:101B00000197F1F700C0000087E190E060E070E02D
:101B10000E941E0A89EF90E00197F1F700C00000D3
:101B20001F910895CF93DF93EC018881882331F0D2
:101B300021960E944F0D89918823D9F7DF91CF918B
:101B4000089581E00E94D10C8CE00E94D10C089590
:101B500081E00E94D10C88E00E94D10C08950F937F
:101B60001F93CF93DF93182F0E941B0D81E061E03C
:101B70000E94FD0C80E091E00E94920D80E060E008
:101B8000412F0E94AE0880932A03812F6AE00E94B1
:101B90008B18082F192F8DB79EB708970FB6F8949A
:101BA0009EBF0FBE8DBFEDB7FEB73196CCE2D3E03E
:101BB000ADB7BEB71296DC93CE9311978FE091E04C
:101BC0009383828304831582168317820E942519CA
:101BD0008DB79EB708960FB6F8949EBF0FBE8DBF07
:101BE00082E061E00E94FD0CCE010E94920D80E037
:101BF00060E042E00E94160880932A03ADB7BEB7AA
:101C000018970FB6F894BEBF0FBEADBFEDB7FEB7C5
:101C100031961296DC93CE93119786E291E09383EE
:101C2000828304831582168317820E9425198DB73B
:101C30009EB708960FB6F8949EBF0FBE8DBF82E088
:101C400061E00E94FD0CCE010E94920DDF91CF91C8
:101C50001F910F91089582E060E00E943F128DE392
:101C600091E00E94111382E062E00E943F128CE436
:101C700091E00E94111382E063E00E943F1281E52F
:101C800091E00E94111382E065E00E943F1287E616
:101C900091E00E94111382E066E00E943F1282E709
:101CA00091E00E9411138FEB97E2A9E081509040E0
:101CB000A040E1F700C000000E9455120895F8947A
:101CC0000E94020A0E94B0078FE996E8A1E08150C5
:101CD0009040A040E1F700C000000E9479128AE025
:101CE0000E94DB1281E00E94EC1282E00E94090A4D
:101CF0008FE996E8A1E081509040A040E1F700C054
:101D000000000E9455120E942B0E81E00E94090AD9
:101D1000789408952F923F924F925F926F927F92A4
:101D20008F929F92AF92BF92CF92DF92EF92FF92EB
:101D30000F931F93DF93CF93CDB7DEB7A2970FB664
:101D4000F894DEBF0FBECDBF0E946C15A1E6B0E0D7
:101D50008C918E7F8C93E2E6F0E080818E7F808391
:101D60008C918D7F8C9380818D7F80838C918B7FF4
:101D70008C9380818B7F808319A2CC24DD24EE2478
:101D80009924689491F8FF24F3948E010F5F1F4FFC
:101D90000F2EFFE7AF2EF1E0BF2EF02D0F2EFCE24D
:101DA0004F2EF3E05F2EF02D81B18077803541F02A
:101DB000803619F0803351F406C01092140209C025
:101DC000F092140206C09092140203C083E0809344
:101DD00014028091140290E090934803809347038B
:101DE00020911803213009F455C0213020F0223011
:101DF00009F0BCC0A0C0859909C0909345038093A9
:101E0000440390921803929A9098B0C00097C9F436
:101E100020914403309145032115310591F0109232
:101E2000450310924403F09218039298909A80917F
:101E3000460380FF03C09398949A98C0939A94980D
:101E400095C08230910509F52091440330914503F6
:101E500022303105D1F0A2E0B0E0B0934503A09369
:101E600044038091460380FF03C09398949A02C074
:101E7000939A94989091460391709F258091460380
:101E80008E7F892B8093460371C090934503809386
:101E900044036CC0859917C09098929A809146032C
:101EA0008D7F80934603809146038B7F809346030A
:101EB0008091470390914803909345038093440396
:101EC0009092180353C08130910599F420914403F6
:101ED000309145032130310561F081E090E090932D
:101EE00045038093440380914603826080934603B8
:101EF0003DC082309105D1F42091440330914503D7
:101F00002230310599F0A2E0B0E0B0934503A093F0
:101F10004403F89480914603826080934603809145
:101F20004603846080934603789420C090934503D1
:101F3000809344031BC0859B15C08130910591F4AB
:101F400020914403309145032130310559F081E05F
:101F500090E0909345038093440310921803929A63
:101F6000909804C090934503809344038091180394
:101F700090E0B8014AE050E00E9404190E941B0D55
:101F80008F2D6F2D0E94FD0C8091180300D000D082
:101F900000D0EDB7FEB73196ADB7BEB712961C9321
:101FA0000E931197B382A282848315820E94251911
:101FB0008DB79EB706960FB6F8949EBF0FBE8DBF25
:101FC000C8010E94920DA3ECB9E01197F1F700C08F
:101FD000000080912103909122038C159D0508F447
:101FE000C6C080911803823009F4C1C080911803E3
:101FF000882309F4BCC080912103909122030F2E05
:10200000F4E6CF2EDD24F02DC80ED91E80E00E940C
:10201000CD071C018F2D0E94DF07882E892D0E947D
:10202000DF07782EC1010E94B2151C01882D0E9485
:10203000D315882E872D0E94DE158AA3C1016AE080
:1020400070E00E9497183B011C0180E090E00E9424
:1020500073160E942116DC01CB01BE016F5E7F4F1B
:102060004AE050E00E9404190E941B0D8DB79EB7F4
:1020700008970FB6F8949EBF0FBE8DBFEDB7FEB7A1
:102080003196ADB7BEB712965C924E9211978AE820
:1020900091E09383828375826482378226820E94D4
:1020A0002519ADB7BEB718960FB6F894BEBF0FBED0
:1020B000ADBF8F2D6F2D0E94FD0CC2010E94920DAD
:1020C00000D000D000D0EDB7FEB73196ADB7BEB7A7
:1020D00012965C924E9211978BE991E093838283E2
:1020E000848215820E942519ADB7BEB716960FB629
:1020F000F894BEBF0FBEADBF8F2D6DE00E94FD0CEA
:1021000082EA91E00E94920D892D6F2D0E94FD0CB4
:10211000C2010E94920D00D000D000D0EDB7FEB7F2
:102120003196ADB7BEB712965C924E92119787EA80
:1021300091E0938382839AA1948315820E9425194A
:10214000ADB7BEB716960FB6F894BEBF0FBEADBF03
:10215000892D66E00E94FD0CC2010E94920DB9A17A
:10216000BF5FB9A3B530B9F1BA3091F538C08091ED
:1021700018038230A9F48F2D6F2D0E94FD0C82EB85
:1021800091E00E94920D80E090E00E94B2158F2DA8
:102190000E94D3158F2D0E94DE15929A909818C038
:1021A000809118038823A1F48F2D6F2D0E94FD0CC0
:1021B00083EC91E00E94920D80E090E00E94B215C5
:1021C0008F2D0E94D3158F2D0E94DE15929A909824
:1021D000EE2031F001C0EF2CAD9A85B3E5CD19A208
:1021E000AD9885B3EE24E0CD8FEF84BB0E941B0D2C
:1021F00081E061E00E94FD0C88ED91E00E94920D6B
:10220000089580E182B983B980E789BF8091460350
:102210008E7F80934603889A9098959A8A9A929A8C
:102220008B9A8C9A9398949A83B1806783B98091A2
:1022300046038B7F80934603809146038695827088
:10224000909146039D7F892B80934603809146039E
:10225000816080934603F89478940E94F4100E9461
:102260005F0E81E10E94AF0D0E948A0EFDCF1F928A
:102270000F920FB60F920BB60F9211242F933F932C
:102280004F935F936F937F938F939F93AF93BF937E
:10229000EF93FF930E941B0D81E061E00E94FD0C13
:1022A00086EE91E00E94920D8FE493EC0197F1F796
:1022B00000C0000081E080931803FF91EF91BF916F
:1022C000AF919F918F917F916F915F914F913F91CE
:1022D0002F910F900BBE0F900FBE0F901F9018956F
:1022E0001F920F920FB60F920BB60F9211242F93DD
:1022F0003F934F935F936F937F938F939F93AF938E
:10230000BF93EF93FF930E941B0D81E061E00E9459
:10231000FD0C8FEE91E00E94920D8FE493EC0197FB
:10232000F1F700C0000010921803929A9098FF9164
:10233000EF91BF91AF919F918F917F916F915F913D
:102340004F913F912F910F900BBE0F900FBE0F90AA
:102350001F9018951F920F920FB60F920BB60F9207
:1023600011242F933F934F935F936F937F938F939A
:102370009F93AF93BF93EF93FF9382E090E090938E
:102380004803809347030E941B0D81E061E00E9497
:10239000FD0C87EF91E00E94920D8FE493EC019782
:1023A000F1F700C0000080914603846080934603EB
:1023B0008091460380FF11C081E061E00E94FD0C26
:1023C00080E092E00E94920D8FE493EC0197F1F788
:1023D00000C000009398949A10C081E061E00E94D0
:1023E000FD0C8AE092E00E94920D8FE493EC01973D
:1023F000F1F700C00000939A9498FF91EF91BF917C
:10240000AF919F918F917F916F915F914F913F918C
:102410002F910F900BBE0F900FBE0F901F9018952D
:10242000DF93CF930F92CDB7DEB76983AB98A898AF
:10243000882319F0A99A85B302C0A99885B3A89AF0
:1024400087E090E0FE013196A898208130E0082EC8
:1024500002C0359527950A94E2F720FF03C0A99A98
:1024600025B302C0A99825B3A89A01972FEF8F3FF3
:10247000920751F7AB9A0F90CF91DF9108951F9378
:10248000182F6F70606B80E00E941012612F6F70C8
:1024900080E00E941012612F62956F70677060611A
:1024A00080E00E9410121F910895FF920F931F93D6
:1024B00080E060E00E943F1280E06EEA0E9410120D
:1024C00000E00F2EF0E6FF2EF02D09C081E060E065
:1024D0000E9410121150D1F70F5F093011F01F2D1B
:1024E000F5CF80E06FEA0E9410121F910F91FF90CC
:1024F0000895A39AAB9AA19AA998A09AA898A29A8B
:10250000AA98AB9883ED90E30197F1F700C0000023
:10251000AA9A80E063E20E94101280E060E90E94C3
:10252000101280E064EA0E94101280E06FE20E94C4
:10253000101280E060E40E94101280E060EB0E94C4
:10254000101280E060E10E94101280E060E00E94C2
:10255000101280E068EC0E94101280E061EA0E9494
:10256000101280E06CEA0E94101280E067E00E9486
:10257000101280E06FEA0E9410120E94551280E053
:1025800067EA0E9410128FE996E8A1E0815090401E
:10259000A040E1F700C0000080E066EA0E9410124F
:1025A0008FE996E8A1E081509040A040E1F700C09B
:1025B0000000089508951F93182F80E061E20E94A3
:1025C0001012612F606880E00E94101280E060E2CB
:1025D0000E9410121F910895089508950895089576
:1025E00008950F931F93CF93DF9305E0809F8001A1
:1025F0001124E801C356DE4F0E551E4FFE016491B3
:10260000660F81E00E9410122196C017D107B1F722
:1026100081E060E00E941012DF91CF911F910F9135
:102620000895CF93DF93EC0180E06EEA0E941012D0
:102630008881882331F021960E94F11289918823A4
:10264000D9F780E06FEA0E941012DF91CF910895D0
:102650008823C4F08095282F30E0220F331F2F5F8E
:10266000304070E0269FC001279F900D369F900D4F
:102670001124892F992781509F4F969587958F5FB9
:1026800080950895282F30E0220F331F2F5F3040B0
:1026900070E0269FC001279F900D369F900D11245A
:1026A000892F992781509F4F969587958F5F089521
:1026B0001F920F920FB60F920BB60F921124EF924A
:1026C000FF920F931F932F933F934F935F936F93BB
:1026D0007F938F939F93AF93BF93EF93FF938091DB
:1026E0001D0390911E0323E08C31920730F08091FE
:1026F0001F03805F80931F032EC080911D03909164
:102700001E0322E08435920730F080911F03885F1A
:1027100080931F0320C080911D0390911E0321E030
:102720008C38920730F080911F038C5F80931F03D9
:1027300012C080911D0390911E03843C910530F0DE
:1027400080911F038E5F80931F0305C080911F033C
:102750008F5F80931F0380911D0390911E0321E0E2
:102760008F3E920708F438C08091460380FF14C062
:10277000E0911F03F0E0E35EFA4FE491F0E0FBBD6F
:10278000EABDE0911F03EC5AF0E0E35EFA4FE491FA
:10279000F0E0F9BDE8BD13C0E0911F03F0E0E35E97
:1027A000FA4FE491F0E0F9BDE8BDE0911F03EC5A67
:1027B000F0E0E35EFA4FE491F0E0FBBDEABDE091AA
:1027C0001F03E655F0E0E35EFA4FE491F0E0F0938A
:1027D0007900E0937800B3C080911D0390911E03AF
:1027E0008036910508F047C08091460380FF1AC0EB
:1027F000E0911F03F0E0E35EFA4F84916AE00E94EB
:10280000281390E09BBD8ABDE0911F03EC5AF0E0D5
:10281000E35EFA4F84916AE00E94281390E099BD2C
:1028200088BD19C0E0911F03F0E0E35EFA4F849188
:102830006AE00E94281390E099BD88BDE0911F03D3
:10284000EC5AF0E0E35EFA4F84916AE00E942813AC
:1028500090E09BBD8ABDE0911F03E655F0E0E35E8A
:10286000FA4F84916AE00E94281390E090937900D7
:102870008093780064C020911D0330911E032F5572
:10288000304045EF50E00E947C1820E931E040E004
:1028900050E00E94AB180F2EFAE0EF2EF0E0FF2E72
:1028A000F0E00F2FF0E01F2FF02DE20EF31E041FBB
:1028B000151F8091460380FF1AC0E0911F03F0E0CE
:1028C000E35EFA4F84916E2D0E94281390E09BBD29
:1028D0008ABDE0911F03EC5AF0E0E35EFA4F849169
:1028E0006E2D0E94281390E099BD88BD19C0E0911B
:1028F0001F03F0E0E35EFA4F84916E2D0E942813CF
:1029000090E099BD88BDE0911F03EC5AF0E0E35ED2
:10291000FA4F84916E2D0E94281390E09BBD8ABDD2
:10292000E0911F03E655F0E0E35EFA4F84916E2DCF
:102930000E94281390E09093790080937800FF9193
:10294000EF91BF91AF919F918F917F916F915F9127
:102950004F913F912F911F910F91FF90EF900F900A
:102960000BBE0F900FBE0F901F9018951F920F92E5
:102970000FB60F920BB60F9211242F933F938F93A4
:102980009F93EF93FF9320911D0330911E0380913D
:102990001B0390911C0328173907B8F410922303E6
:1029A000809124038F5F80932403909115028917EF
:1029B00090F11092240380911D0390911E030196C3
:1029C00090931E0380931D0326C020911D03309118
:1029D0001E0380911B0390911C0382179307B8F488
:1029E00010922403809123038F5F8093230390919F
:1029F0001602891780F01092230380911D03909195
:102A00001E03019790931E0380931D0304C0109230
:102A100024031092230380911D0390911E030097BD
:102A200081F1E0911D03F0911E03EE0FFF1FE35EA5
:102A3000F84F859194910197909387008093860039
:102A400080912003882391F58FB580688FBD8FB565
:102A500080628FBD8FB588608FBD81E08093200339
:102A6000EAE8F0E08081887F81608083ECE7F0E035
:102A7000808180618083EDE7F0E0808180618083E8
:102A800015C08FB58F778FBD8FB58F7D8FBD8FB5FB
:102A9000877F8FBD10922003EAE8F0E08081887F75
:102AA0008083EDE7F0E080818F7E80838091210339
:102AB0009091220301969093220380932103FF912A
:102AC000EF919F918F913F912F910F900BBE0F909F
:102AD0000FBE0F901F901895BD9A8FB58F778FBD41
:102AE000BE9A8FB58F7D8FBDBF9A8FB5877F8FBD03
:102AF0008091460380FF0CC080911F0390E09BBD36
:102B00008ABD80911F038C5A90E099BD88BD0BC08F
:102B100080911F0390E099BD88BD80911F038C5A5E
:102B200090E09BBD8ABD80911F03865590E09093F5
:102B300079008093780081E08FBD8EB5887F8160B9
:102B40008EBD83E080938B0088E180938A0084E6C9
:102B500083BD8BE085BD86B7806886BF87B78068F8
:102B600087BF08958E30910528F410921C031092AF
:102B70001B0310C023E0823F920730F40D9790931F
:102B80001C0380931B0306C084EE93E090931C0308
:102B900080931B0320911B0330911C032C5F3F4F3C
:102BA000822F932F0895882319F08093150203C074
:102BB00081E080931502809115020895882319F011
:102BC0008093160203C081E0809316028091160262
:102BD00008951AB81BB886E08093950083E389B9FD
:102BE0001092900088E98AB908955F9BFECF8BB15F
:102BF0008CB108955D9BFECF8CB90895CF93DF9380
:102C0000EC01FE012491222351F02196FC018491D4
:102C10000E94FA15CE01FE0124912223B1F7DF9123
:102C2000CF910895CF93DF93EC018881882331F011
:102C300021960E94FA1589918823D9F7DF91CF91C7
:102C40000895ACE0B0E0E7E2F6E10C94DD186983AA
:102C50007A838B839C83CE010196BE016B5F7F4F8D
:102C60000E9413188D81823081F1823070F184309E
:102C700021F48E81882369F10AC02F81388537FDC0
:102C800024C06E812F3131053CF0662311F120E024
:102C900030E040E050E821C08EE190E0821B930BD1
:102CA00029853A854B855C8504C0569547953795AF
:102CB00027958A95D2F7662381F0509540953095F7
:102CC00021953F4F4F4F5F4F08C020E030E0A901F2
:102CD00004C02FEF3FEF4FEF5FE7B901CA012C9619
:102CE000E2E00C94F918A8E0B0E0E9E7F6E10C9412
:102CF000D7187B018C011A82611571058105910538
:102D000019F482E089835FC083E089838EE1C82E55
:102D1000D12CDC82CB82ED82FE820F831887C80122
:102D2000B7010E94EB16FC013197F7FF3AC0AA27C2
:102D3000BB27AE1BBF0B21E030E040E050E00A2E85
:102D400004C0220F331F441F551F0A94D2F721508D
:102D50003040404050402E213F214023512361E02C
:102D600070E080E090E0211531054105510519F42E
:102D700060E070E0CB0104C016950795F794E794E6
:102D8000AA95D2F7E62AF72A082B192BED82FE82A4
:102D90000F8318878EE190E08E1B9F0B9C838B83A3
:102DA00012C0309781F00E2E04C0EE0CFF1C001FE5
:102DB000111F0A94D2F7ED82FE820F831887CE1A74
:102DC000DF0ADC82CB82CE0101960E94451728964D
:102DD000E8E00C94F318AF92BF92CF92DF92EF929B
:102DE000FF920F931F937B018C0180E0E81680E037
:102DF000F80681E0080780E0180758F4EFEFEE16B8
:102E0000F1040105110509F090F480E090E0DC0187
:102E100017C0F0E0EF16F0E0FF06F0E00F07F1E07A
:102E20001F0750F480E190E0A0E0B0E009C088E026
:102E300090E0A0E0B0E004C088E190E0A0E0B0E065
:102E400020E230E040E050E0281B390B4A0B5B0BDE
:102E50005701680104C0D694C794B794A7948A9583
:102E6000D2F7D601C501895E9D4FFC018081281BE8
:102E7000310941095109C9011F910F91FF90EF904C
:102E8000DF90CF90BF90AF900895EF92FF920F9395
:102E90001F93CF93DF93FC012481358146815781B5
:102EA00061818081823020F44061EFEFF0E0A3C0C7
:102EB000843009F49BC0823009F492C02115310599
:102EC0004105510509F48FC00280F381E02D8FEF99
:102ED000E238F8070CF05AC0C2E8DFEFCE1BDF0B78
:102EE000CA31D1056CF579018A010C2E04C0169502
:102EF0000795F794E7940A94D2F781E090E0A0E078
:102F0000B0E00C2E04C0880F991FAA1FBB1F0A94A3
:102F1000D2F70197A109B10982239323A423B523F2
:102F200021E030E040E050E00097A105B10519F440
:102F300020E030E0A9012E293F29402B512B03C06E
:102F400020E030E0A901DA01C9018F779070A0700C
:102F5000B07080349105A105B10539F427FF09C08F
:102F6000205C3F4F4F4F5F4F04C0215C3F4F4F4F9E
:102F70005F4FE1E0F0E0203080E0380780E0480774
:102F800080E4580728F5E0E0F0E022C0E038F105E1
:102F90006CF5E158FF4FDA01C9018F779070A0708E
:102FA000B07080349105A105B10539F427FF09C03F
:102FB000205C3F4F4F4F5F4F04C0215C3F4F4F4F4E
:102FC0005F4F57FF05C05695479537952795319622
:102FD00087E056954795379527958A95D1F70BC089
:102FE000E0E0F0E005C0E0E0F0E005C0EFEFF0E089
:102FF00020E030E0A9018E2F879588278795942FB0
:103000009F77679566276795E695E22EA92FA82BEF
:10301000FE2FF62B622F732F8A2F9F2FCDB7DEB78F
:10302000E6E00C94F518DC01FB012C9111963C9123
:10303000119712968C911297482F4F7750E0982F46
:10304000991F9927991F13966C911397862F880FB4
:10305000892B90E0661F6627661F6183009739F50C
:10306000211531054105510511F482E029C082E89E
:103070009FEF9383828367E0220F331F441F551F06
:103080006A95D1F783E0808309C0220F331F441F64
:10309000551F82819381019793838283203080E042
:1030A000380780E0480780E4580778F320C08F3F56
:1030B000910579F4211531054105510519F484E094
:1030C0008083089544FF03C081E0808310C0108294
:1030D0000EC08F5790409383828383E0808387E084
:1030E000220F331F441F551F8A95D1F75064248344
:1030F0003583468357830895539FC001429FB00193
:10310000529F700D811D1124911D349F700D811DE2
:103110001124911D0895991B79E004C0991F9617F9
:1031200008F0961B881F7A95C9F780950895AA1B09
:10313000BB1B51E107C0AA1FBB1FA617B70710F0A2
:10314000A61BB70B881F991F5A95A9F780959095D4
:10315000BC01CD010895A1E21A2EAA1BBB1BFD01E3
:103160000DC0AA1FBB1FEE1FFF1FA217B307E40766
:10317000F50720F0A21BB30BE40BF50B661F771FBE
:10318000881F991F1A9469F760957095809590959E
:103190009B01AC01BD01CF0108952F923F924F9248
:1031A0005F926F927F928F929F92AF92BF92CF92D7
:1031B000DF92EF92FF920F931F93CF93DF93CDB7E0
:1031C000DEB7CA1BDB0B0FB6F894DEBF0FBECDBF58
:1031D00009942A88398848885F846E847D848C8429
:1031E0009B84AA84B984C884DF80EE80FD800C8132
:1031F0001B81AA81B981CE0FD11D0FB6F894DEBF15
:103200000FBECDBFED010895FB019F01E894423050
:10321000C4F04532B4F44A3029F497FB1EF490957B
:1032200081959F4F642F77270E949718805D8A337E
:103230000CF0895D8193CB010097A1F716F45DE254
:1032400051931082C9010C947B1B0F931F93DF9342
:10325000CF93CDB7DEB72E970FB6F894DEBF0FBE73
:10326000CDBF0D891E8986E08C831A8309838FEF79
:103270009FE79E838D839E01275E3F4FCE0101967F
:103280006F89788DA9010E945519EF81F885E00FAB
:10329000F11F10822E960FB6F894DEBF0FBECDBF81
:1032A000CF91DF911F910F9108952F923F924F92EE
:1032B0005F926F927F928F929F92AF92BF92CF92C6
:1032C000DF92EF92FF920F931F93DF93CF93CDB7CF
:1032D000DEB72C970FB6F894DEBF0FBECDBF6C01E2
:1032E0001B018A01FC0117821682838181FFD1C1F3
:1032F0002E010894411C511CF6019381F10193FDAC
:10330000859193FF81911F01882309F4BEC1853205
:1033100039F493FD859193FF81911F01853229F442
:1033200090E0B6010E948B1BE7CFEE24FF2420E043
:103330002032B0F48B3269F08C3228F4803251F0B4
:10334000833271F40BC08D3239F0803349F421603F
:103350002CC02260246029C0286027C0206125C0BD
:1033600027FD2CC0382F30533A3098F426FF08C080
:103370008E2D880FE82EEE0CEE0CE80EE30E15C035
:103380008F2D880FF82EFF0CFF0CF80EF30E206225
:103390000CC08E3221F426FD78C1206406C08C3624
:1033A00011F4206802C0883649F4F10193FD85913B
:1033B00093FF81911F01882309F0BACF982F95546C
:1033C000933018F09052933028F40C5F1F4FFFE3B6
:1033D000F9830DC0833631F0833771F0833509F0FE
:1033E00060C022C0F801808189830E5F1F4F4201B7
:1033F00071E0A72EB12C16C062E0662E712C600E13
:10340000711EF8018080918026FF03C06E2D70E050
:1034100002C06FEF7FEFC4012C870E94701B5C011C
:1034200083012C852F7717C052E0652E712C600E1A
:10343000711EF8018080918026FF03C06E2D70E020
:1034400002C06FEF7FEFC4012C870E94651B5C01F7
:103450002C852068830123FD20C008C080E290E015
:10346000B6012C870E948B1BFA942C858F2D90E03F
:10347000A816B90698F311C0F40127FD859127FF1E
:1034800081914F0190E0B6012C870E948B1B2C8507
:10349000F110FA940894A108B108A114B10461F7DD
:1034A000F1C0843611F0893649F527FF08C0F801CC
:1034B00060817181828193810C5F1F4F09C0F80187
:1034C00060817181882777FD8095982F0E5F1F4F4F
:1034D0004FE6B42EB22297FF09C090958095709563
:1034E00061957F4F8F4F9F4FF0E8BF2AA2012AE0DE
:1034F00030E00E94B71B782E741845C0853731F430
:103500003FEEB32EB2222AE030E025C099EFB92E6B
:10351000B2228F36C1F0803720F4883509F0B5C06B
:103520000DC0803721F0883709F0AFC002C020E11C
:10353000B22AB4FE0BC084E0B82A08C0B4FE09C0A9
:10354000E6E0BE2A06C028E030E005C020E130E019
:1035500002C020E132E0B7FE08C0F801608171814D
:10356000828193810C5F1F4F07C0F80160817181D8
:1035700080E090E00E5F1F4FA2010E94B71B782EE3
:103580007418FFE7BF22B6FE0BC02EEFB2227E14E6
:1035900038F4B4FE07C0B2FC05C08FEEB82202C0FA
:1035A000A72C01C0AE2C8B2D90E0B4FE0DC0FE0107
:1035B000E70DF11D2081203319F4E9EEBE2209C088
:1035C000A394B2FE06C004C086789070009709F0FC
:1035D000A3948B2C9924B3FC14C0B0FE0FC0AF147D
:1035E00028F4E72CEF0CEA18AF2C08C0E72C06C033
:1035F00080E290E0B6010E948B1BA394AF14C0F34D
:1036000004C0AF1410F4FA1801C0FF2484FE0FC0E8
:1036100080E390E0B6010E948B1B82FE1FC081FEFA
:1036200003C088E590E010C088E790E00DC0C401B9
:1036300086789070009791F081FC02C080E201C012
:103640008BE2B7FC8DE290E0B6010E948B1B06C0B6
:1036500080E390E0B6010E948B1BEA947E14C0F3D5
:103660007A94F201E70DF11D808190E0B6010E948D
:103670008B1B7720A9F706C080E290E0B6010E947C
:103680008B1BFA94FF20C1F737CEF60126813781D4
:1036900002C02FEF3FEFC9012C960FB6F894DEBFA2
:1036A0000FBECDBFCF91DF911F910F91FF90EF9093
:1036B000DF90CF90BF90AF909F908F907F906F9052
:1036C0005F904F903F902F900895FC0105906150BE
:1036D00070400110D8F7809590958E0F9F1F089528
:1036E000FC016150704001900110D8F780959095D1
:1036F0008E0F9F1F0895DC01FC01672F71917723C6
:10370000E1F7329704C07C916D9370836291AE179C
:10371000BF07C8F308950F931F93CF93DF938C01D6
:10372000EB018B8181FF1BC082FF0DC02E813F8189
:103730008C819D812817390764F4E881F981019310
:10374000F983E88306C0E885F985802F09950097FD
:1037500031F48E819F8101969F838E8302C00FEF8B
:103760001FEFC801DF91CF911F910F910895FA01CA
:10377000AA27283051F1203181F1E8946F936E7FB0
:103780006E5F7F4F8F4F9F4FAF4FB1E03ED0B4E0A1
:103790003CD0670F781F891F9A1FA11D680F791FE2
:1037A0008A1F911DA11D6A0F711D811D911DA11DF3
:1037B00020D009F468943F912AE0269F1124301903
:1037C000305D3193DEF6CF010895462F4770405D9E
:1037D0004193B3E00FD0C9F7F6CF462F4F70405D4D
:1037E0004A3318F0495D31FD4052419302D0A9F7A8
:1037F000EACFB4E0A6959795879577956795BA95A2
:10380000C9F700976105710508959B01AC010A2E67
:1038100006945795479537952795BA95C9F7620F3E
:0E382000731F841F951FA01D0895F894FFCFFD
:10382E00456570726F6D5F496E697469616C0045B4
:10383E004550524F4D5F77726974653A2530336447
:10384E002E2530316400454550524F4D5F726561F3
:10385E00643A253033642E25303164200020205305
:10386E0050574D2074657374212121006279203ADE
:10387E00004E6F757262616B687368202620656CEE
:10388E006173612E697200436F7079726967687433
:10389E003A00202020204F5A48414E204B44006DC4
:1038AE006F64653A2530336420004652513A253014
:1038BE0033642E25303164487A200025303364532A
:1038CE0020004143433A004445433A253033645384
:1038DE0020004661756C74206163637275656420A7
:1038EE0021210053544F505F4D4F44452061636377
:1038FE007275656420212100456C6173612E6972B9
:10390E0020546573740052554E5F4D4F444500531D
:10391E00746F70206F6E004449525F434F444500F0
:10392E004449525F3120202020004449525F30200C
:10393E0020202000030101000102020303030304FF
:10394E000404040404040405050505050505050520
:10395E000505050505050506060606060606060600
:10396E0006060606060606060606060606060606E9
:10397E0006060606060606070707070707070707D0
:10398E0007070707070707070707070707070707B9
:10399E0007070707070707070707070707070707A9
:1039AE000707070707070707070707070707070799
:1039BE000707070707070708080808080808080880
:1039CE000808080808080808080808080808080869
:1039DE000808080808080808080808080808080859
:1039EE000808080808080808080808080808080849
:1039FE000808080808080808080808080808080839
:103A0E000808080808080808080808080808080828
:103A1E000808080808080808080808080808080818
:103A2E000808080808080808080808080808080808
:083A3E00080808080808080048
:00000001FF
