:100000000C949B050C94BA050C94BA050C94BA0593
:100010000C94BA050C94BA050C94BA050C94BA0564
:100020000C94BA050C942A0D0C94BA050C94BA05DC
:100030000C94BA050C94BA050C94BA050C94BA0544
:100040000C94BA050C94BA050C94BA050C94BA0534
:100050000C94BA050C940D060C94BA050C94BA05D0
:100060000C94BA050C94BA050C941F0C0C94BA05A8
:100070000C94BA050C94BA050C94BA050C94BA0504
:100080000C94BA050C94BA050C94BA050000000053
:100090000000005F00000007000700147F147F14B9
:1000A000242A7F2A122313086462364955225000FD
:1000B00005030000001C2241000041221C00082A08
:1000C0001C2A0808083E08080050300000080808EC
:1000D0000808003030000020100804023E51494555
:1000E0003E00427F400042615149462141454B312B
:1000F0001814127F1027454545393C4A49493001BB
:10010000710905033649494936064949291E003611
:100110003600000056360000000814224114141462
:100120001414412214080002015109063249794190
:100130003E7E1111117E7F494949363E414141229F
:100140007F4141221C7F494949417F090901013E04
:10015000414151327F0808087F00417F4100204023
:10016000413F017F081422417F404040407F02040C
:10017000027F7F0408107F3E4141413E7F0909090B
:10018000063E4151215E7F091929464649494931B8
:1001900001017F01013F4040403F1F2040201F7F61
:1001A0002018207F6314081463030478040361514A
:1001B00049454300007F4141020408102041417F2E
:1001C00000000402010204404040404000010204DB
:1001D0000020545454787F484444383844444420E0
:1001E000384444487F3854545418087E09010208A2
:1001F0001454543C7F0804047800447D400020409F
:10020000443D00007F10284400417F40007C0418DA
:1002100004787C0804047838444444387C1414146A
:1002200008081414187C7C0804040848545454200A
:10023000043F4440203C4040207C1C2040201C3C8B
:100240004030403C44281028440C5050503C4464FA
:10025000544C44000836410000007F000000413645
:10026000080008082A1C08081C2A080880838689B8
:100270008C8F9295989C9FA2A5A8ABAEB0B3B6B94F
:10028000BCBFC1C4C7C9CCCED1D3D5D8DADCDEE07F
:10029000E2E4E6E8EAECEDEFF0F2F3F5F6F7F8F970
:1002A000FAFBFCFCFDFEFEFFFFFFFFFFFFFFFFFF71
:1002B000FFFFFEFEFDFCFCFBFAF9F8F7F6F5F3F2A2
:1002C000F0EFEDECEAE8E6E4E2E0DEDCDAD8D5D304
:1002D000D1CECCC9C7C4C1BFBCB9B6B3B0AEABA850
:1002E000A5A29F9C9895928F8C898683807C797635
:1002F00073706D6A6763605D5A5754514F4C49463D
:1003000043403E3B383633312E2C2A272523211FEC
:100310001D1B1917151312100F0D0C0A09080706DB
:1003200005040303020101000000000000000000BA
:10033000000001010203030405060708090A0C0D69
:100340000F1012131517191B1D1F212325272A2CE7
:100350002E313336383B3E404346494C4F5154577B
:100360005A5D6063676A6D707376797C000024F46F
:1003700073CB63AE9798A287127AF96EBA65E65D81
:10038000315761514B4CCE47D1433F40093D213A53
:100390007D371335DD32D430F32E362D992B182AC4
:1003A000B12861272626FE24E723E122E921FE2049
:1003B00020204D1F851EC61D101D631CBE1B201B4B
:1003C000891AF9196E19EA186A18EF177A170817B7
:1003D0009B163216CC156A150C15B114581403145B
:1003E000B01360131313C8127F123812F411B11135
:1003F00070113111F410B9107F1047101010DA0F7E
:10040000A60F740F420F120FE30EB50E880E5C0E8E
:10041000320E080EDF0DB70D900D6A0D450D200D43
:10042000FC0CD90CB70C960C750C550C350C160C35
:10043000F80BDA0BBD0BA00B840B690B4E0B330BC7
:10044000190BFF0AE60ACD0AB50A9D0A860A6F0A49
:10045000580A420A2C0A170A010AED09D809C409E8
:10046000B0099D0989097609640951093F092E09D6
:100470001C090B09FA08E908D808C808B808A80830
:10048000990889087A086B085C084E083F0831080B
:10049000230816080808FA07ED07E007D307C60780
:1004A000BA07AD07A107950789077D07710766079A
:1004B0005B074F07440739072E07230719070E0765
:1004C0000407FA06F006E606DC06D206C806BF06F2
:1004D000B506AC06A2069906900687067E06750646
:1004E0006D0664065C0653064B0643063A06320662
:1004F0002A062206350C250C160C070CF80BE90B06
:10050000DA0BCB0BBD0BAE0BA00B920B840B760B57
:10051000690B5B0B4E0B400B330B260B190B0C0BB3
:10052000FF0AF30AE60ADA0ACD0AC10AB50AA90ADD
:100530009D0A920A860A7A0A6F0A640A580A4D0AC4
:10054000420A370A2C0A210A170A0C0A010AF7097B
:10055000ED09E209D809CE09C409BA09B009A6090A
:100560009D0993098909800976096D0964095B0968
:10057000510948093F0936092E0925091C091309A3
:100580000B090209FA08F108E908E108D808D008BF
:10059000C808C008B808B008A808A00899089108B9
:1005A000890882087A0873086B0864085C08550893
:1005B0004E0847083F08380831082A0823081C0855
:1005C00016080F0808080108FA07F407ED07E707FF
:1005D000E007DA07D307CD07C607C007BA07B40795
:1005E000AD07A707A1079B0795078F078907830713
:1005F0007D07770771076C07660760075B0755077C
:100600004F074A0744073F07390734072E072907D2
:1006100023071E07190714070E0709070407FF061B
:10062000FA06F506F006EB06E606E106DC06D70656
:10063000D206CD06C806C306BF06BA06B506B00682
:10064000AC06A706A2069E069906950690068C069D
:10065000870683067E067A06750671066D066806AD
:10066000640660065C06570653064F064B064706AF
:1006700043063E063A06360632062E062A062606A9
:1006800022061E06350C2D0C250C1E0C160C0E0C0D
:10069000070CFF0BF80BF00BE90BE10BDA0BD30B9C
:1006A000CB0BC40BBD0BB60BAE0BA70BA00B990B62
:1006B000920B8B0B840B7D0B760B6F0B690B620B14
:1006C0005B0B540B4E0B470B400B3A0B330B2C0BB5
:1006D000260B1F0B190B120B0C0B060BFF0AF90A4A
:1006E000F30AEC0AE60AE00ADA0AD40ACD0AC70AD3
:1006F000C10ABB0AB50AAF0AA90AA30A9D0A970A4A
:10070000920A8C0A860A800A7A0A750A6F0A690AAE
:10071000640A5E0A580A530A4D0A480A420A3D0A08
:10072000370A320A2C0A270A210A1C0A170A110A58
:100730000C0A070A010AFC09F709F209ED09E709A1
:10074000E209DD09D809D309CE09C909C409BF09DD
:10075000BA09B509B009AB09A609A1099D0998090B
:1007600093098E098909850980097B09760972092F
:100770006D09680964095F095B09560951094D094A
:10078000480944093F093B09360932092E0929095C
:10079000250920091C09180913090F090B09070964
:1007A0000209FE08FA08F608F108ED08E908E5086C
:1007B000E108DD08D808D408D008CC08C808C40867
:1007C000C008BC08B808B408B008AC08A808A40859
:1007D000A0089D089908950891088D088908860841
:1007E00082087E087A08760873086F086B08670825
:1007F000640860085C085908550851084E084A0802
:10080000470843083F083C083808350831082E08D7
:100810002A08270847104010391032102B102410D6
:100820001D101710101009100210FC0FF50FEE0F1D
:10083000E80FE10FDA0FD40FCD0FC70FC00FBA0FBB
:10084000B30FAD0FA60FA00F9A0F930F8D0F870F49
:10085000800F7A0F740F6D0F670F610F5B0F550FCD
:100860004E0F480F420F3C0F360F300F2A0F240F48
:100870001E0F180F120F0C0F060F000FFA0EF40EBA
:10088000EF0EE90EE30EDD0ED70ED20ECC0EC60E25
:10089000C00EBB0EB50EAF0EAA0EA40E9F0E990E83
:1008A000930E8E0E880E830E7D0E780E720E6D0ED8
:1008B000670E620E5C0E570E520E4C0E470E420E25
:1008C0003C0E370E320E2C0E270E220E1D0E180E69
:1008D000120E0D0E080E030EFE0DF90DF30DEE0DAA
:1008E000E90DE40DDF0DDA0DD50DD00DCB0DC60DE4
:1008F000C10DBC0DB70DB20DAD0DA90DA40D9F0D11
:100900009A0D950D900D8B0D870D820D7D0D780D37
:10091000740D6F0D6A0D650D610D5C0D570D530D56
:100920004E0D490D450D400D3C0D370D320D2E0D70
:10093000290D250D200D1C0D170D130D0E0D0A0D83
:10094000050D010DFC0CF80CF40CEF0CEB0CE70C96
:10095000E20CDE0CD90CD50CD10CCD0CC80CC40C9F
:10096000C00CBB0CB70CB30CAF0CAB0CA60CA20CA0
:100970009E0C9A0C960C920C8D0C890C850C810C9B
:100980007D0C790C750C710C6D0C690C650C610C8F
:100990005D0C590C550C510C4D0C490C450C410C7F
:1009A0003D0C390C6A1862185A1853184B18431822
:1009B0003B1834182C1824181D1815180E18061872
:1009C000FF17F717EF17E817E017D917D217CA174D
:1009D000C317BB17B417AD17A5179E1797178F1717
:1009E000881781177A1772176B1764175D175617D8
:1009F0004F1747174017391732172B1724171D1792
:100A000016170F1708170117FA16F316ED16E61644
:100A1000DF16D816D116CA16C416BD16B616AF16EE
:100A2000A816A2169B1694168E16871680167A168E
:100A300073166D1666165F16591652164C16451625
:100A40003F16381632162B1625161F1618161216B4
:100A50000B160516FF15F815F215EC15E515DF1543
:100A6000D915D315CC15C615C015BA15B415AD15C5
:100A7000A715A1159B1595158F15891583157D153E
:100A8000771570156A1564155E15581553154D15B3
:100A9000471541153B1535152F15291523151D151E
:100AA000181512150C1506150015FB14F514EF1486
:100AB000E914E414DE14D814D214CD14C714C114EC
:100AC000BC14B614B114AB14A514A0149A14951444
:100AD0008F148A1484147F14791474146E14691496
:100AE00063145E14581453144E14481443143D14E4
:100AF000381433142D14281423141D14181413142B
:100B00000D1408140314FE13F813F313EE13E91372
:100B1000E413DE13D913D413CF13CA13C513C013B0
:100B2000BB13B513B013AB13A613A1139C139713E8
:100B300092138D13881311241FBECFEFD0E1DEBFB7
:100B4000CDBF11E0A0E0B1E0E8EBFEE100E00BBFBB
:100B500002C007900D92A236B107D9F711E0A2E6C4
:100B6000B1E001C01D92A738B107E1F70E94D00A99
:100B70000C945A0F0C94000035980895359A0895F6
:100B80003D9808953D9A0895379A08953398379877
:100B9000089596B1987F892B86B9089597B182956B
:100BA000880F880F807C9F73982B97B908950E94B7
:100BB000C4050E94BC0586E00E94C90581E00E9430
:100BC000CE050E94C00510926E01339A7894089564
:100BD00097B18F71907E982B97B90895349A369A71
:100BE000089586B18074089510926E0197B18F7147
:100BF000907E982B97B9349A369A80916E0188230B
:100C0000E1F324B135B1822F932F08950E94F405AA
:100C1000969587959695879508951F920F920FB692
:100C20000F9211248F9381E080936E018F910F902A
:100C30000FBE0F901F901895A79AAF98A59AAD98E0
:100C4000A69AAE980895882391F090E0AF9AE7E9CC
:100C5000FAE33197F1F700C00000AF98E7ECFFEA44
:100C60003197F1F700C000009F5F981778F308955F
:100C70006115710509F0A0C0009711F4D898089586
:100C80008130910511F4D99808958230910511F4BD
:100C9000DA9808958330910511F4DB980895843033
:100CA000910511F4DC9808958530910511F4DD98D3
:100CB00008958630910511F4DE98089587309105E6
:100CC00011F4DF9808958A30910511F4C0980895C1
:100CD0008B30910511F4C19808958C30910511F471
:100CE000C29808958D30910511F4C39808958E30FF
:100CF000910511F4C49808958F30910511F4C598A9
:100D000008958031910511F4C698089581319105B7
:100D100011F4C79808958431910511F4A8980895A5
:100D20008531910511F4A99808958631910511F442
:100D3000AA9808958731910511F4AB9808958831E8
:100D4000910511F4AC9808958931910511F4AD988D
:100D500008958A31910511F4AE9808958B3191056B
:100D600011F4AF9808958E31910511F4909808957B
:100D70008F31910511F4919808958032910511F405
:100D8000929808958132910511F4939808958232D2
:100D9000910511F4949808958332910511F4959872
:100DA00008958432910511F496980895853291053D
:100DB00009F0A0C097980895009711F4D89A089563
:100DC0008130910511F4D99A08958230910511F47A
:100DD000DA9A08958330910511F4DB9A08958430EE
:100DE000910511F4DC9A08958530910511F4DD9A8E
:100DF00008958630910511F4DE9A089587309105A3
:100E000011F4DF9A08958A30910511F4C09A08957B
:100E10008B30910511F4C19A08958C30910511F42D
:100E2000C29A08958D30910511F4C39A08958E30B9
:100E3000910511F4C49A08958F30910511F4C59A63
:100E400008958031910511F4C69A08958131910574
:100E500011F4C79A08958431910511F4A89A089560
:100E60008531910511F4A99A08958631910511F4FF
:100E7000AA9A08958731910511F4AB9A08958831A3
:100E8000910511F4AC9A08958931910511F4AD9A48
:100E900008958A31910511F4AE9A08958B31910528
:100EA00011F4AF9A08958E31910511F4909A089536
:100EB0008F31910511F4919A08958032910511F4C2
:100EC000929A08958132910511F4939A089582328D
:100ED000910511F4949A08958332910511F4959A2D
:100EE00008958432910511F4969A089585329105FA
:100EF00009F4979A08950F931F93082F182F80FFD6
:100F000007C080E090E061E070E00E94380606C013
:100F100080E090E060E070E00E94380611FF07C0BA
:100F200081E090E061E070E00E94380606C081E058
:100F300090E060E070E00E94380612FF07C082E097
:100F400090E061E070E00E94380606C082E090E028
:100F500060E070E00E94380613FF07C083E090E075
:100F600061E070E00E94380606C083E090E060E037
:100F700070E00E94380614FF07C088E190E061E04D
:100F800070E00E94380606C088E190E060E070E002
:100F90000E94380615FF07C089E190E061E070E02B
:100FA0000E94380606C089E190E060E070E00E948F
:100FB000380616FF07C08AE190E061E070E00E9409
:100FC000380606C08AE190E060E070E00E943806D2
:100FD00000233CF48BE190E061E070E00E94380671
:100FE00006C08BE190E060E070E00E9438061F913F
:100FF0000F9108951F93182F86E190E060E070E054
:101000000E943806812F0E947B0787E190E061E013
:1010100070E00E94380689EF90E00197F1F700C078
:10102000000087E190E060E070E00E94380689EF00
:1010300090E00197F1F700C000001F91089581E052
:101040000E94FA070895813029F4862F80580E9463
:10105000FA070895823021F4862F80540E94FA07FF
:10106000089586E190E060E070E00E94380687E134
:1010700090E060E070E00E94380687E893E1019715
:10108000F1F700C0000080E30E94FA0781EE94E0CF
:101090000197F1F700C0000080E30E94FA0789EF92
:1010A00090E00197F1F700C0000080E30E94FA078A
:1010B00083EC99E00197F1F700C0000088E30E94FB
:1010C000FA078CE00E94FA0781E00E94FA0786E0A6
:1010D0000E94FA0708951F93182F86E190E061E0BF
:1010E00070E00E943806812F0E947B0787E190E024
:1010F00061E070E00E94380689EF90E00197F1F717
:1011000000C0000087E190E060E070E00E943806D7
:1011100089EF90E00197F1F700C000001F9108955A
:10112000CF93DF93EC018881882331F021960E94D0
:101130006B0889918823D9F7DF91CF9108958CE1CD
:101140000E94FA07089588E10E94FA070895CF9354
:10115000DF93C82FD0E0CE0180FF07C088E190E088
:1011600061E070E00E94380606C088E190E060E02F
:1011700070E00E943806C1FF07C089E190E061E09D
:1011800070E00E94380606C089E190E060E070E0FF
:101190000E943806C2FF07C08AE190E061E070E07B
:1011A0000E94380606C08AE190E060E070E00E948C
:1011B0003806C3FF07C08BE190E061E070E00E9459
:1011C000380606C08BE190E060E070E00E943806CF
:1011D000DF91CF9108951F93182F86E190E060E092
:1011E00070E00E943806812F0E94A70887E190E0F6
:1011F00061E070E00E94380689EF90E00197F1F716
:1012000000C0000087E190E060E070E00E943806D6
:1012100089EF90E00197F1F700C000001F91089559
:1012200080E00E94EB0881E00E94EB0808951F9384
:10123000813061F4162F1058812F82958F700E9493
:10124000EB08812F8F700E94EB080DC0823059F49B
:10125000162F1054812F82958F700E94EB08812FDA
:101260008F700E94EB081F91089580E00E94A708EC
:1012700087E893E10197F1F700C0000083E00E9446
:10128000EB0881EE94E00197F1F700C0000083E0E5
:101290000E94EB088DEB9AE00197F1F700C0000087
:1012A00083E00E94EB0882E00E94EB0882E00E944B
:1012B000EB0888E00E94EB0880E00E94EB088CE0DD
:1012C0000E94EB0880E00E94EB0886E00E94EB0899
:1012D00008951F93182F86E190E061E070E00E946E
:1012E0003806812F82958F700E94A70887E190E0D1
:1012F00061E070E00E94380689EF90E00197F1F715
:1013000000C0000087E190E060E070E00E943806D5
:1013100089EF90E00197F1F700C00000812F8F70F6
:101320000E94A70887E190E061E070E00E94380623
:1013300089EF90E00197F1F700C0000087E190E0AD
:1013400060E070E00E94380689EF90E00197F1F7C5
:1013500000C000001F910895CF93DF93EC018881B6
:10136000882331F021960E94690989918823D9F751
:10137000DF91CF91089581E00E94EB088CE00E94FC
:10138000EB08089581E00E94EB0888E00E94EB08DA
:10139000089582E060E00E94060B80E091E00E94E8
:1013A000D80B82E062E00E94060B8FE091E00E9481
:1013B000D80B82E063E00E94060B84E191E00E947A
:1013C000D80B82E065E00E94060B8AE291E00E9461
:1013D000D80B82E066E00E94060B85E391E00E9454
:1013E000D80B8FEB97E2A9E081509040A040E1F745
:1013F00000C000000E941C0B0895F8940E941C0677
:101400000E94D7058FE996E8A1E081509040A04066
:10141000E1F700C000000E94400B8AE00E94A20B8E
:1014200081E00E94B30B82E00E9423068FE996E8D8
:10143000A1E081509040A040E1F700C000000E9470
:101440001C0B0E94C90981E00E942306789408952C
:101450004F925F926F927F928F929F92AF92BF92C4
:10146000CF92DF92EF92FF920F931F93DF93CF9370
:10147000CDB7DEB760970FB6F894DEBF0FBECDBF15
:101480000E94E00DA1E6B0E08C918E7F8C93E2E6A5
:10149000F0E080818E7F80838C918D7F8C93808122
:1014A0008D7F80838C918B7F8C9380818B7F8083D9
:1014B000CC2400E010E0FF240F2EFAE06F2E7724FA
:1014C000F02D4E010894811C911C0F2EF2E44F2E3A
:1014D000F1E05F2EF02D80916A0190916B018017F1
:1014E000910708F442C000916A0110916B010C59F8
:1014F0001F4F80E00E94F4055C0181E00E94060617
:10150000E82E82E00E940606D82EC5010E94160E23
:101510005C018E2D0E94370E8D2D0E94420EC5015A
:10152000B3010E94F30E80E090E00E947E0E0E94C4
:101530004D0EDC01CB01B401A3010E94290F0E94D2
:10154000350981E061E00E941709C2010E94AC09DF
:1015500082E061E00E941709C4010E94AC09C394B3
:101560008C2D853029F08A3041F0FF2039F002C0FF
:10157000FF24F394AD9A85B3AECFCC24AD9885B358
:10158000FF24A9CF8FEF81BB84BB0E94350981E086
:1015900061E00E94170982E591E00E94AC0908957C
:1015A0000E94C20A0E94FD090E94280AFFCFDF9311
:1015B000CF930F92CDB7DEB76983AB98A8988823F5
:1015C00019F0A99A85B302C0A99885B3A89A87E0B3
:1015D00090E0FE013196A898208130E0082E02C0EC
:1015E000359527950A94E2F720FF03C0A99A25B301
:1015F00002C0A99825B3A89A01972FEF8F3F9207B1
:1016000051F7AB9A0F90CF91DF9108951F93182F48
:101610006F70606B80E00E94D70A612F6F7080E06E
:101620000E94D70A612F62956F706770606180E0D9
:101630000E94D70A1F910895FF920F931F9380E095
:1016400060E00E94060B80E06EEA0E94D70A00E08C
:101650000F2EF0E6FF2EF02D09C081E060E00E9421
:10166000D70A1150D1F70F5F093011F01F2DF5CFB8
:1016700080E06FEA0E94D70A1F910F91FF900895B2
:10168000A39AAB9AA19AA998A09AA898A29AAA9864
:10169000AB9883ED90E30197F1F700C00000AA9AA0
:1016A00080E063E20E94D70A80E060E90E94D70AE6
:1016B00080E064EA0E94D70A80E06FE20E94D70AC5
:1016C00080E060E40E94D70A80E060EB0E94D70AC5
:1016D00080E060E10E94D70A80E060E00E94D70AC3
:1016E00080E068EC0E94D70A80E061EA0E94D70A95
:1016F00080E06CEA0E94D70A80E067E00E94D70A87
:1017000080E06FEA0E94D70A0E941C0B80E067EA23
:101710000E94D70A8FE996E8A1E081509040A0404E
:10172000E1F700C0000080E066EA0E94D70A8FE976
:1017300096E8A1E081509040A040E1F700C0000091
:10174000089508951F93182F80E061E20E94D70A40
:10175000612F606880E00E94D70A80E060E20E940A
:10176000D70A1F910895089508950895089508953A
:101770000F931F93CF93DF9305E0809F8001112487
:10178000E801C451D0400F501040FE016491660F33
:1017900081E00E94D70A2196C017D107B1F781E0F6
:1017A00060E00E94D70ADF91CF911F910F910895B9
:1017B000CF93DF93EC0180E06EEA0E94D70A888124
:1017C000882331F021960E94B80B89918823D9F79C
:1017D00080E06FEA0E94D70ADF91CF9108958823B5
:1017E000C4F08095282F30E0220F331F2F5F304048
:1017F00070E0269FC001279F900D369F900D112409
:10180000892F992781509F4F969587958F5F809557
:101810000895282F30E0220F331F2F5F304070E0F3
:10182000269FC001279F900D369F900D1124892F70
:10183000992781509F4F969587958F5F08951F92A6
:101840000F920FB60F920BB60F921124CF92DF9228
:10185000EF92FF921F932F933F934F935F936F935A
:101860007F938F939F93AF93BF93EF93FF93809159
:1018700066019091670123E08C31920730F08091EE
:101880006801805F809368012EC08091660190910D
:10189000670122E08435920730F080916801885F0B
:1018A0008093680120C0809166019091670121E0DA
:1018B0008C38920730F0809168018C5F80936801CA
:1018C00012C08091660190916701843C910530F0CF
:1018D000809168018E5F8093680105C080916801E6
:1018E0008F5F80936801809166019091670121E08C
:1018F0008F3E920700F1E0916801F0E0E459FD4F5E
:10190000E491F0E0FBBDEABDE0916801EC5AF0E043
:10191000E459FD4FE491F0E0F9BDE8BDE0916801C4
:10192000E655F0E0E459FD4FE491F0E0F0937900E2
:10193000E093780077C080916601909167018036CE
:10194000910548F5E0916801F0E0E459FD4F84917C
:1019500069E10E94EF0B90E09BBD8ABDE0916801B8
:10196000EC5AF0E0E459FD4F849169E10E94EF0BDD
:1019700090E099BD88BDE0916801E655F0E0E4593A
:10198000FD4F849169E10E94EF0B90E09093790004
:101990008093780047C02091660130916701E09103
:1019A0006801F0E0E459FD4F14912F55304046EEA8
:1019B00050E00E94E40E20E931E040E050E00E9457
:1019C000070F0F2EF9E1CF2EF0E0DF2EF0E0EF2E23
:1019D000F0E0FF2EF02DC20ED31EE41EF51E812F67
:1019E0006C2D0E94EF0B90E09BBD8ABDE0916801D9
:1019F000EC5AF0E0E459FD4F84916C2D0E94EF0BFE
:101A000090E099BD88BDE0916801E655F0E0E459A9
:101A1000FD4F84916C2D0E94EF0B90E09093790024
:101A200080937800FF91EF91BF91AF919F918F913B
:101A30007F916F915F914F913F912F911F91FF90F7
:101A4000EF90DF90CF900F900BBE0F900FBE0F90D6
:101A50001F9018951F920F920FB60F920BB60F9210
:101A600011242F933F938F939F93EF93FF93209194
:101A7000660130916701809164019091650128179A
:101A80003907B8F410926C0180916D018F5F8093DB
:101A90006D0190916001891790F110926D01809114
:101AA00066019091670101969093670180936601AA
:101AB00026C0209166013091670180916401909168
:101AC000650182179307B8F410926D0180916C0143
:101AD0008F5F80936C0190916101891780F0109263
:101AE0006C01809166019091670101979093670165
:101AF0008093660104C010926D0110926C01809178
:101B0000660190916701009781F1E0916601F09183
:101B10006701EE0FFF1FE459FC4F859194910197E7
:101B2000909387008093860080916901882391F5C6
:101B30008FB580688FBD8FB580628FBD8FB588608F
:101B40008FBD81E080936901EAE8F0E08081887FC1
:101B500081608083ECE7F0E0808180618083EDE745
:101B6000F0E080818061808315C08FB58F778FBD55
:101B70008FB58F7D8FBD8FB5877F8FBD1092690127
:101B8000EAE8F0E08081887F8083EDE7F0E0808103
:101B90008F7E808380916A0190916B010196909372
:101BA0006B0180936A01FF91EF919F918F913F911B
:101BB0002F910F900BBE0F900FBE0F901F90189596
:101BC000BD9A8FB58F778FBDBE9A8FB58F7D8FBD34
:101BD000BF9A8FB5877F8FBD8091680190E09BBDD4
:101BE0008ABD809168018C5A90E099BD88BD809132
:101BF0006801865590E0909379008093780081E0A9
:101C00008FBD8EB5887F81608EBD83E080938B0011
:101C100088E180938A008CE783BD8BE085BD86B721
:101C2000806886BF87B7806887BF08958E3091052A
:101C300028F4109265011092640110C023E0823FE5
:101C4000920730F40D97909365018093640106C06C
:101C500084EE93E090936501809364012091640188
:101C6000309165012C5F3F4F822F932F0895882379
:101C700019F08093600103C081E08093600180913E
:101C800060010895882319F08093610103C081E009
:101C90008093610180916101089504D06894B1112D
:101CA0008DC0089570D088F09F5790F0B92F992774
:101CB000B751A0F0D1F0660F771F881F991F1AF057
:101CC000BA95C9F712C0B13081F077D0B1E008956C
:101CD00074C0672F782F8827B85F39F0B93FCCF3ED
:101CE000869577956795B395D9F73EF4909580954D
:101CF000709561957F4F8F4F9F4F0895E89409C06D
:101D000097FB3EF490958095709561957F4F8F4F2E
:101D10009F4F9923A9F0F92F96E9BB279395F69544
:101D2000879577956795B795F111F8CFFAF4BB0FC2
:101D300011F460FF1BC06F5F7F4F8F4F9F4F16C026
:101D4000882311F096E911C0772321F09EE8872FB0
:101D5000762F05C0662371F096E8862F70E060E06C
:101D60002AF09A95660F771F881FDAF7880F9695E5
:101D7000879597F9089557FD9058440F551F59F0CE
:101D80005F3F71F04795880F97FB991F61F09F3F68
:101D900079F087950895121613061406551FF2CF91
:101DA0004695F1DF08C0161617061806991FF1CFE1
:101DB00086957105610508940895E894BB27662708
:101DC0007727CB0197F90895539FC001429FB00137
:101DD000529F700D811D1124911D349F700D811D26
:101DE0001124911D0895AA1BBB1B51E107C0AA1F16
:101DF000BB1FA617B70710F0A61BB70B881F991FAC
:101E00005A95A9F780959095BC01CD010895A1E25E
:101E10001A2EAA1BBB1BFD010DC0AA1FBB1FEE1F64
:101E2000FF1FA217B307E407F50720F0A21BB30BAF
:101E3000E40BF50B661F771F881F991F1A9469F72B
:101E400060957095809590959B01AC01BD01CF0187
:101E50000895FB019F01E8944230C4F04532B4F488
:101E60004A3029F497FB1EF4909581959F4F642F7B
:101E700077270E94F30E805D8A330CF0895D819391
:101E8000CB010097A1F716F45DE251931082C901CE
:101E90000C944A0FDC01FC01672F71917723E1F765
:101EA000329704C07C916D9370836291AE17BF0727
:081EB000C8F30895F894FFCF78
:101EB80020205350574D20746573742121210062EE
:101EC80079203A004E6F757262616B6873682026DC
:101ED80020656C6173612E697200436F7079726955
:101EE8006768743A00202020204F5A48414E204B02
:101EF80044004672657175656E6379206973203A8E
:101F08002000456C6173612E6972205465737400FA
:021F18000101C5
:00000001FF
