:100000000C949B060C94BA060C94BA060C94BA068F
:100010000C94BA060C94BA060C94BA060C94BA0660
:100020000C94BA060C94BC0F0C94BA060C94BA0645
:100030000C94BA060C94BA060C94BA060C94BA0640
:100040000C94BA060C94BA060C94BA060C94BA0630
:100050000C94BA060C940D070C94BA060C94BA06CC
:100060000C94BA060C94BA060C94790E0C94BA0649
:100070000C94BA060C94BA060C94BA060C94BA0600
:100080000C94BA060C94BA060C94BA060000000050
:100090000000005F00000007000700147F147F14B9
:1000A000242A7F2A122313086462364955225000FD
:1000B00005030000001C2241000041221C00082A08
:1000C0001C2A0808083E08080050300000080808EC
:1000D0000808003030000020100804023E51494555
:1000E0003E00427F400042615149462141454B312B
:1000F0001814127F1027454545393C4A49493001BB
:10010000710905033649494936064949291E003611
:100110003600000056360000000814224114141462
:100120001414412214080002015109063249794190
:100130003E7E1111117E7F494949363E414141229F
:100140007F4141221C7F494949417F090901013E04
:10015000414151327F0808087F00417F4100204023
:10016000413F017F081422417F404040407F02040C
:10017000027F7F0408107F3E4141413E7F0909090B
:10018000063E4151215E7F091929464649494931B8
:1001900001017F01013F4040403F1F2040201F7F61
:1001A0002018207F6314081463030478040361514A
:1001B00049454300007F4141020408102041417F2E
:1001C00000000402010204404040404000010204DB
:1001D0000020545454787F484444383844444420E0
:1001E000384444487F3854545418087E09010208A2
:1001F0001454543C7F0804047800447D400020409F
:10020000443D00007F10284400417F40007C0418DA
:1002100004787C0804047838444444387C1414146A
:1002200008081414187C7C0804040848545454200A
:10023000043F4440203C4040207C1C2040201C3C8B
:100240004030403C44281028440C5050503C4464FA
:10025000544C44000836410000007F000000413645
:10026000080008082A1C08081C2A080880838689B8
:100270008C8F9295989C9FA2A5A8ABAEB0B3B6B94F
:10028000BCBFC1C4C7C9CCCED1D3D5D8DADCDEE07F
:10029000E2E4E6E8EAECEDEFF0F2F3F5F6F7F8F970
:1002A000FAFBFCFCFDFEFEFFFFFFFFFFFFFFFFFF71
:1002B000FFFFFEFEFDFCFCFBFAF9F8F7F6F5F3F2A2
:1002C000F0EFEDECEAE8E6E4E2E0DEDCDAD8D5D304
:1002D000D1CECCC9C7C4C1BFBCB9B6B3B0AEABA850
:1002E000A5A29F9C9895928F8C898683807C797635
:1002F00073706D6A6763605D5A5754514F4C49463D
:1003000043403E3B383633312E2C2A272523211FEC
:100310001D1B1917151312100F0D0C0A09080706DB
:1003200005040303020101000000000000000000BA
:10033000000001010203030405060708090A0C0D69
:100340000F1012131517191B1D1F212325272A2CE7
:100350002E313336383B3E404346494C4F5154577B
:100360005A5D6063676A6D707376797C8083868975
:100370008C8F9295989C9FA2A5A8ABAEB0B3B6B94E
:10038000BCBFC1C4C7C9CCCED1D3D5D8DADCDEE07E
:10039000E2E4E6E8EAECEDEFF0F2F3F5F6F7F8F96F
:1003A000FAFBFCFCFDFEFEFFFFFFFFFFFFFFFFFF70
:1003B000FFFFFEFEFDFCFCFBFAF9F8F7F6F5F3F2A1
:1003C000F0EFEDECEAE8E6E4E2E0DEDCDAD8D5D303
:1003D000D1CECCC9C7C4C1BFBCB9B6B3B0AEABA84F
:1003E000A5A29F9C9895928F8C898683807C797634
:1003F00073706D6A6763605D5A5754514F4C49463C
:1004000043403E3B383633312E2C2A272523211FEB
:100410001D1B1917151312100F0D0C0A09080706DA
:1004200005040303020101000000000000000000B9
:10043000000001010203030405060708090A0C0D68
:100440000F1012131517191B1D1F212325272A2CE6
:100450002E313336383B3E404346494C4F5154577A
:100460005A5D6063676A6D707376797C0005090E6A
:1004700013171C21252A2F33383C41464A4F535726
:100480005C6064696D71757A7E82868A8E929599B8
:100490009DA1A4A8ABAFB2B5B9BCBFC2C5C8CBCEF5
:1004A000D0D3D6D8DBDDDFE2E4E6E8EAECEDEFF12D
:1004B000F2F4F5F6F7F8F9FAFBFCFDFDFEFEFFFF9E
:1004C000FFFFFFFFFFFEFEFEFDFCFCFBFAF9F8F765
:1004D000F6F4F3F2F0EEEDEBE9E7E5E3E1DFDCDA89
:1004E000D7D5D2D0CDCAC7C4C1BEBBB8B4B1AEAAED
:1004F000A7A39F9C9894908C8884807C7874706C5F
:1005000067635F5A56514D49443F3B36322D29248B
:100510001F1B16110D0803FEFAF5F0ECE7E2DED919
:10052000D4D0CBC7C2BDB9B4B0ACA7A39E9A9692A3
:100530008D8985817D7975716D6966625E5B5754C1
:10054000504D494643403D3A3734312F2C2927241A
:1005500022201E1C1918161412100F0D0C0B09085E
:10056000070605040403030202010101000024F44C
:1005700073CB63AE9798A287127AF96EBA65E65D7F
:10058000315761514B4CCE47D1433F40093D213A51
:100590007D371335DD32D430F32E362D992B182AC2
:1005A000B12861272626FE24E723E122E921FE2047
:1005B00020204D1F851EC61D101D631CBE1B201B49
:1005C000891AF9196E19EA186A18EF177A170817B5
:1005D0009B163216CC156A150C15B1145814031459
:1005E000B01360131313C8127F123812F411B11133
:1005F00070113111F410B9107F1047101010DA0F7C
:10060000A60F740F420F120FE30EB50E880E5C0E8C
:10061000320E080EDF0DB70D900D6A0D450D200D41
:10062000FC0CD90CB70C960C750C550C350C160C33
:10063000F80BDA0BBD0BA00B840B690B4E0B330BC5
:10064000190BFF0AE60ACD0AB50A9D0A860A6F0A47
:10065000580A420A2C0A170A010AED09D809C409E6
:10066000B0099D0989097609640951093F092E09D4
:100670001C090B09FA08E908D808C808B808A8082E
:10068000990889087A086B085C084E083F08310809
:10069000230816080808FA07ED07E007D307C6077E
:1006A000BA07AD07A107950789077D077107660798
:1006B0005B074F07440739072E07230719070E0763
:1006C0000407FA06F006E606DC06D206C806BF06F0
:1006D000B506AC06A2069906900687067E06750644
:1006E0006D0664065C0653064B0643063A06320660
:1006F0002A062206350C250C160C070CF80BE90B04
:10070000DA0BCB0BBD0BAE0BA00B920B840B760B55
:10071000690B5B0B4E0B400B330B260B190B0C0BB1
:10072000FF0AF30AE60ADA0ACD0AC10AB50AA90ADB
:100730009D0A920A860A7A0A6F0A640A580A4D0AC2
:10074000420A370A2C0A210A170A0C0A010AF70979
:10075000ED09E209D809CE09C409BA09B009A60908
:100760009D0993098909800976096D0964095B0966
:10077000510948093F0936092E0925091C091309A1
:100780000B090209FA08F108E908E108D808D008BD
:10079000C808C008B808B008A808A00899089108B7
:1007A000890882087A0873086B0864085C08550891
:1007B0004E0847083F08380831082A0823081C0853
:1007C00016080F0808080108FA07F407ED07E707FD
:1007D000E007DA07D307CD07C607C007BA07B40793
:1007E000AD07A707A1079B0795078F078907830711
:1007F0007D07770771076C07660760075B0755077A
:100800004F074A0744073F07390734072E072907D0
:1008100023071E07190714070E0709070407FF0619
:10082000FA06F506F006EB06E606E106DC06D70654
:10083000D206CD06C806C306BF06BA06B506B00680
:10084000AC06A706A2069E069906950690068C069B
:10085000870683067E067A06750671066D066806AB
:10086000640660065C06570653064F064B064706AD
:1008700043063E063A06360632062E062A062606A7
:1008800022061E06350C2D0C250C1E0C160C0E0C0B
:10089000070CFF0BF80BF00BE90BE10BDA0BD30B9A
:1008A000CB0BC40BBD0BB60BAE0BA70BA00B990B60
:1008B000920B8B0B840B7D0B760B6F0B690B620B12
:1008C0005B0B540B4E0B470B400B3A0B330B2C0BB3
:1008D000260B1F0B190B120B0C0B060BFF0AF90A48
:1008E000F30AEC0AE60AE00ADA0AD40ACD0AC70AD1
:1008F000C10ABB0AB50AAF0AA90AA30A9D0A970A48
:10090000920A8C0A860A800A7A0A750A6F0A690AAC
:10091000640A5E0A580A530A4D0A480A420A3D0A06
:10092000370A320A2C0A270A210A1C0A170A110A56
:100930000C0A070A010AFC09F709F209ED09E7099F
:10094000E209DD09D809D309CE09C909C409BF09DB
:10095000BA09B509B009AB09A609A1099D09980909
:1009600093098E098909850980097B09760972092D
:100970006D09680964095F095B09560951094D0948
:10098000480944093F093B09360932092E0929095A
:10099000250920091C09180913090F090B09070962
:1009A0000209FE08FA08F608F108ED08E908E5086A
:1009B000E108DD08D808D408D008CC08C808C40865
:1009C000C008BC08B808B408B008AC08A808A40857
:1009D000A0089D089908950891088D08890886083F
:1009E00082087E087A08760873086F086B08670823
:1009F000640860085C085908550851084E084A0800
:100A0000470843083F083C083808350831082E08D5
:100A10002A08270847104010391032102B102410D4
:100A20001D101710101009100210FC0FF50FEE0F1B
:100A3000E80FE10FDA0FD40FCD0FC70FC00FBA0FB9
:100A4000B30FAD0FA60FA00F9A0F930F8D0F870F47
:100A5000800F7A0F740F6D0F670F610F5B0F550FCB
:100A60004E0F480F420F3C0F360F300F2A0F240F46
:100A70001E0F180F120F0C0F060F000FFA0EF40EB8
:100A8000EF0EE90EE30EDD0ED70ED20ECC0EC60E23
:100A9000C00EBB0EB50EAF0EAA0EA40E9F0E990E81
:100AA000930E8E0E880E830E7D0E780E720E6D0ED6
:100AB000670E620E5C0E570E520E4C0E470E420E23
:100AC0003C0E370E320E2C0E270E220E1D0E180E67
:100AD000120E0D0E080E030EFE0DF90DF30DEE0DA8
:100AE000E90DE40DDF0DDA0DD50DD00DCB0DC60DE2
:100AF000C10DBC0DB70DB20DAD0DA90DA40D9F0D0F
:100B00009A0D950D900D8B0D870D820D7D0D780D35
:100B1000740D6F0D6A0D650D610D5C0D570D530D54
:100B20004E0D490D450D400D3C0D370D320D2E0D6E
:100B3000290D250D200D1C0D170D130D0E0D0A0D81
:100B4000050D010DFC0CF80CF40CEF0CEB0CE70C94
:100B5000E20CDE0CD90CD50CD10CCD0CC80CC40C9D
:100B6000C00CBB0CB70CB30CAF0CAB0CA60CA20C9E
:100B70009E0C9A0C960C920C8D0C890C850C810C99
:100B80007D0C790C750C710C6D0C690C650C610C8D
:100B90005D0C590C550C510C4D0C490C450C410C7D
:100BA0003D0C390C6A1862185A1853184B18431820
:100BB0003B1834182C1824181D1815180E18061870
:100BC000FF17F717EF17E817E017D917D217CA174B
:100BD000C317BB17B417AD17A5179E1797178F1715
:100BE000881781177A1772176B1764175D175617D6
:100BF0004F1747174017391732172B1724171D1790
:100C000016170F1708170117FA16F316ED16E61642
:100C1000DF16D816D116CA16C416BD16B616AF16EC
:100C2000A816A2169B1694168E16871680167A168C
:100C300073166D1666165F16591652164C16451623
:100C40003F16381632162B1625161F1618161216B2
:100C50000B160516FF15F815F215EC15E515DF1541
:100C6000D915D315CC15C615C015BA15B415AD15C3
:100C7000A715A1159B1595158F15891583157D153C
:100C8000771570156A1564155E15581553154D15B1
:100C9000471541153B1535152F15291523151D151C
:100CA000181512150C1506150015FB14F514EF1484
:100CB000E914E414DE14D814D214CD14C714C114EA
:100CC000BC14B614B114AB14A514A0149A14951442
:100CD0008F148A1484147F14791474146E14691494
:100CE00063145E14581453144E14481443143D14E2
:100CF000381433142D14281423141D141814131429
:100D00000D1408140314FE13F813F313EE13E91370
:100D1000E413DE13D913D413CF13CA13C513C013AE
:100D2000BB13B513B013AB13A613A1139C139713E6
:100D300092138D13881311241FBECFEFD0E1DEBFB5
:100D4000CDBF11E0A0E0B1E0ECE9F9E200E00BBFBB
:100D500002C007900D92AC37B107D9F711E0ACE7AC
:100D6000B1E001C01D92A73AB107E1F70E943E0C25
:100D70000C94CC140C94000035980895359A08957D
:100D80003D9808953D9A0895379A08953398379875
:100D9000089596B1987F892B86B9089597B1829569
:100DA000880F880F807C9F73982B97B908950E94B5
:100DB000C4060E94BC0686E00E94C90681E00E942B
:100DC000CE060E94C00610928901339A7894089545
:100DD00097B18F71907E982B97B90895349A369A6F
:100DE000089586B1807408951092890197B18F712A
:100DF000907E982B97B9349A369A809189018823EE
:100E0000E1F324B135B1822F932F08950E94F406A7
:100E1000969587959695879508951F920F920FB690
:100E20000F9211248F9381E0809389018F910F900D
:100E30000FBE0F901F901895A79AAF98A59AAD98DE
:100E4000A69AAE980895882391F090E0AF9AE7E9CA
:100E5000FAE33197F1F700C00000AF98E7ECFFEA42
:100E60003197F1F700C000009F5F981778F308955D
:100E70006115710509F0A0C0009711F4D898089584
:100E80008130910511F4D99808958230910511F4BB
:100E9000DA9808958330910511F4DB980895843031
:100EA000910511F4DC9808958530910511F4DD98D1
:100EB00008958630910511F4DE98089587309105E4
:100EC00011F4DF9808958A30910511F4C0980895BF
:100ED0008B30910511F4C19808958C30910511F46F
:100EE000C29808958D30910511F4C39808958E30FD
:100EF000910511F4C49808958F30910511F4C598A7
:100F000008958031910511F4C698089581319105B5
:100F100011F4C79808958431910511F4A8980895A3
:100F20008531910511F4A99808958631910511F440
:100F3000AA9808958731910511F4AB9808958831E6
:100F4000910511F4AC9808958931910511F4AD988B
:100F500008958A31910511F4AE9808958B31910569
:100F600011F4AF9808958E31910511F49098089579
:100F70008F31910511F4919808958032910511F403
:100F8000929808958132910511F4939808958232D0
:100F9000910511F4949808958332910511F4959870
:100FA00008958432910511F496980895853291053B
:100FB00009F0A0C097980895009711F4D89A089561
:100FC0008130910511F4D99A08958230910511F478
:100FD000DA9A08958330910511F4DB9A08958430EC
:100FE000910511F4DC9A08958530910511F4DD9A8C
:100FF00008958630910511F4DE9A089587309105A1
:1010000011F4DF9A08958A30910511F4C09A089579
:101010008B30910511F4C19A08958C30910511F42B
:10102000C29A08958D30910511F4C39A08958E30B7
:10103000910511F4C49A08958F30910511F4C59A61
:1010400008958031910511F4C69A08958131910572
:1010500011F4C79A08958431910511F4A89A08955E
:101060008531910511F4A99A08958631910511F4FD
:10107000AA9A08958731910511F4AB9A08958831A1
:10108000910511F4AC9A08958931910511F4AD9A46
:1010900008958A31910511F4AE9A08958B31910526
:1010A00011F4AF9A08958E31910511F4909A089534
:1010B0008F31910511F4919A08958032910511F4C0
:1010C000929A08958132910511F4939A089582328B
:1010D000910511F4949A08958332910511F4959A2B
:1010E00008958432910511F4969A089585329105F8
:1010F00009F4979A08950F931F93082F182F80FFD4
:1011000007C080E090E061E070E00E94380706C010
:1011100080E090E060E070E00E94380711FF07C0B7
:1011200081E090E061E070E00E94380706C081E055
:1011300090E060E070E00E94380712FF07C082E094
:1011400090E061E070E00E94380706C082E090E025
:1011500060E070E00E94380713FF07C083E090E072
:1011600061E070E00E94380706C083E090E060E034
:1011700070E00E94380714FF07C088E190E061E04A
:1011800070E00E94380706C088E190E060E070E0FF
:101190000E94380715FF07C089E190E061E070E028
:1011A0000E94380706C089E190E060E070E00E948C
:1011B000380716FF07C08AE190E061E070E00E9406
:1011C000380706C08AE190E060E070E00E943807CE
:1011D00000233CF48BE190E061E070E00E9438076E
:1011E00006C08BE190E060E070E00E9438071F913C
:1011F0000F9108951F93182F86E190E060E070E052
:101200000E943807812F0E947B0887E190E061E00F
:1012100070E00E94380789EF90E00197F1F700C075
:10122000000087E190E060E070E00E94380789EFFD
:1012300090E00197F1F700C000001F91089581E050
:101240000E94FA080895813029F4862F80580E9460
:10125000FA080895823021F4862F80540E94FA08FB
:10126000089586E190E060E070E00E94380787E131
:1012700090E060E070E00E94380787E893E1019712
:10128000F1F700C0000080E30E94FA0881EE94E0CC
:101290000197F1F700C0000080E30E94FA0889EF8F
:1012A00090E00197F1F700C0000080E30E94FA0887
:1012B00083EC99E00197F1F700C0000088E30E94F9
:1012C000FA088CE00E94FA0881E00E94FA0886E0A1
:1012D0000E94FA0808951F93182F86E190E061E0BC
:1012E00070E00E943807812F0E947B0887E190E020
:1012F00061E070E00E94380789EF90E00197F1F714
:1013000000C0000087E190E060E070E00E943807D4
:1013100089EF90E00197F1F700C000001F91089558
:10132000CF93DF93EC018881882331F021960E94CE
:101330006B0989918823D9F7DF91CF9108958CE1CA
:101340000E94FA08089588E10E94FA080895CF9350
:10135000DF93C82FD0E0CE0180FF07C088E190E086
:1013600061E070E00E94380706C088E190E060E02C
:1013700070E00E943807C1FF07C089E190E061E09A
:1013800070E00E94380706C089E190E060E070E0FC
:101390000E943807C2FF07C08AE190E061E070E078
:1013A0000E94380706C08AE190E060E070E00E9489
:1013B0003807C3FF07C08BE190E061E070E00E9456
:1013C000380706C08BE190E060E070E00E943807CB
:1013D000DF91CF9108951F93182F86E190E060E090
:1013E00070E00E943807812F0E94A70987E190E0F2
:1013F00061E070E00E94380789EF90E00197F1F713
:1014000000C0000087E190E060E070E00E943807D3
:1014100089EF90E00197F1F700C000001F91089557
:1014200080E00E94EB0981E00E94EB0908951F9380
:10143000813061F4162F1058812F82958F700E9491
:10144000EB09812F8F700E94EB090DC0823059F497
:10145000162F1054812F82958F700E94EB09812FD7
:101460008F700E94EB091F91089580E00E94A709E8
:1014700087E893E10197F1F700C0000083E00E9444
:10148000EB0981EE94E00197F1F700C0000083E0E2
:101490000E94EB098DEB9AE00197F1F700C0000084
:1014A00083E00E94EB0982E00E94EB0982E00E9447
:1014B000EB0988E00E94EB0980E00E94EB098CE0D8
:1014C0000E94EB0980E00E94EB0986E00E94EB0994
:1014D00008951F93182F86E190E061E070E00E946C
:1014E0003807812F82958F700E94A70987E190E0CD
:1014F00061E070E00E94380789EF90E00197F1F712
:1015000000C0000087E190E060E070E00E943807D2
:1015100089EF90E00197F1F700C00000812F8F70F4
:101520000E94A70987E190E061E070E00E9438071F
:1015300089EF90E00197F1F700C0000087E190E0AB
:1015400060E070E00E94380789EF90E00197F1F7C2
:1015500000C000001F910895CF93DF93EC018881B4
:10156000882331F021960E94690A89918823D9F74E
:10157000DF91CF91089581E00E94EB098CE00E94F9
:10158000EB09089581E00E94EB0988E00E94EB09D5
:10159000089582E060E00E94600D80E091E00E948A
:1015A000320E82E062E00E94600D8FE091E00E94C6
:1015B000320E82E063E00E94600D84E191E00E94BF
:1015C000320E82E065E00E94600D8AE291E00E94A6
:1015D000320E82E066E00E94600D85E391E00E9499
:1015E000320E8FEB97E2A9E081509040A040E1F7E6
:1015F00000C000000E94760D0895F8940E941C0718
:101600000E94D7068FE996E8A1E081509040A04063
:10161000E1F700C000000E949A0D8AE00E94FC0DD4
:1016200081E00E940D0E82E00E9423078FE996E878
:10163000A1E081509040A040E1F700C000000E946E
:10164000760D0E94C90A81E00E94230778940895CC
:101650003F924F925F926F927F928F929F92AF9242
:10166000BF92CF92DF92EF92FF920F931F93DF937F
:10167000CF93CDB7DEB760970FB6F894DEBF0FBE3D
:10168000CDBF0E947210A1E6B0E08C918E7F8C934A
:10169000E2E6F0E080818E7F80838C918D7F8C9359
:1016A00080818D7F80838C918B7F8C9380818B7FD9
:1016B0008083AA24CC24DD24FF240F2EFAE04F2EB1
:1016C0005524F02D0AE811E0809185019091860162
:1016D0008C159D0508F4B7C0809185019091860115
:1016E0000F2EF4E6CF2EDD24F02DC80ED91E80E09B
:1016F0000E94F4064C0181E00E940607E82E82E079
:101700000E940607B82EC4010E94A8104C018E2D1D
:101710000E94C910382E8B2D0E94D410E82EC401CF
:10172000B2010E9485114B013C0180E090E00E94D3
:1017300010110E94DF10DC01CB01BE016F5F7F4FF3
:10174000A2010E94BB110E94350A8DB79EB708976F
:101750000FB6F8949EBF0FBE8DBFEDB7FEB73196A2
:10176000ADB7BEB712961C930E93119782E491E029
:101770009383828395828482778266820E94DC11C1
:10178000ADB7BEB718960FB6F894BEBF0FBEADBFCB
:1017900081E061E00E94170AC8010E94AC0A00D0F3
:1017A00000D000D0EDB7FEB73196ADB7BEB71296F8
:1017B0001C930E93119783E591E093838283348287
:1017C00015820E94DC11ADB7BEB716960FB6F8941D
:1017D000BEBF0FBEADBF81E06DE00E94170A8AE573
:1017E00091E00E94AC0A82E061E00E94170AC80101
:1017F0000E94AC0A00D000D000D0EDB7FEB7319601
:10180000ADB7BEB712961C930E9311978FE591E07A
:1018100093838283E48215820E94DC11ADB7BEB748
:1018200016960FB6F894BEBF0FBEADBF82E066E05D
:101830000E94170AC8010E94AC0AA394BA2DB530C1
:1018400029F0BA3041F0FF2039F002C0FF24F394B0
:10185000AD9A85B339CFAA24AD9885B3FF2434CF90
:101860008FEF81BB84BB0E94350A81E061E00E945A
:10187000170A8AE691E00E94AC0A0895EF92FF925F
:101880000F931F93CF93DF93889A9098919A8A9A97
:10189000929A8B9A8C9A9398949A83B18C6183B91B
:1018A0008091A4018E7F8093A4018091A401817016
:1018B000880F880F9091A4019B7F892B8093A401AE
:1018C0008091A401869582709091A4019D7F892BBF
:1018D0008093A4010E94300C0E94FD0AEE24FF2494
:1018E0006894E1F8C1E0D0E012E001E08091780175
:1018F00090E09093A6018093A50120917C01213076
:1019000009F448C0213020F0223009F0A7C08EC071
:10191000819907C09093A3018093A20110937C0149
:101920009DC0009781F42091A2013091A30121155F
:10193000310559F11092A3011092A20100937C018C
:101940009298909A8BC082309105F9F42091A2016F
:101950003091A30122303105C1F0F092A301E09251
:10196000A2018091A40180FF03C09398949A02C0C1
:10197000939A94989091A401917090278091A401DA
:101980008E7F892B8093A40169C09093A3018093DB
:10199000A20164C0819916C090988091A4018D7FA6
:1019A0008093A4018091A4018B7F8093A4018091F6
:1019B000A5019091A6019093A3018093A201109399
:1019C0007C014CC08130910589F42091A2013091B5
:1019D000A3012130310529F1D093A301C093A201C5
:1019E0008091A40182608093A40138C08230910567
:1019F000C1F42091A2013091A3012230310589F078
:101A0000F092A301E092A201F8948091A401826077
:101A10008093A4018091A40184608093A4017894B0
:101A20001DC09093A3018093A20118C0819B12C096
:101A30008130910579F42091A2013091A3012130E8
:101A4000310541F0D093A301C093A20110927C0113
:101A5000929A04C09093A3018093A2010E94280B44
:101A600045CFDF93CF930F92CDB7DEB76983AB98A5
:101A7000A898882319F0A99A85B302C0A99885B3BC
:101A8000A89A87E090E0FE013196A898208130E086
:101A9000082E02C0359527950A94E2F720FF03C06F
:101AA000A99A25B302C0A99825B3A89A01972FEF48
:101AB0008F3F920751F7AB9A0F90CF91DF91089526
:101AC0001F93182F6F70606B80E00E94310D612FA3
:101AD0006F7080E00E94310D612F62956F706770AA
:101AE000606180E00E94310D1F910895FF920F9375
:101AF0001F9380E060E00E94600D80E06EEA0E942B
:101B0000310D00E00F2EF0E6FF2EF02D09C081E030
:101B100060E00E94310D1150D1F70F5F093011F0D4
:101B20001F2DF5CF80E06FEA0E94310D1F910F91BC
:101B3000FF900895A39AAB9AA19AA998A09AA89801
:101B4000A29AAA98AB9883ED90E30197F1F700C0B1
:101B50000000AA9A80E063E20E94310D80E060E913
:101B60000E94310D80E064EA0E94310D80E06FE256
:101B70000E94310D80E060E40E94310D80E060EB56
:101B80000E94310D80E060E10E94310D80E060E054
:101B90000E94310D80E068EC0E94310D80E061EA26
:101BA0000E94310D80E06CEA0E94310D80E067E018
:101BB0000E94310D80E06FEA0E94310D0E94760D87
:101BC00080E067EA0E94310D8FE996E8A1E081503C
:101BD0009040A040E1F700C0000080E066EA0E946B
:101BE000310D8FE996E8A1E081509040A040E1F7E7
:101BF00000C00000089508951F93182F80E061E24F
:101C00000E94310D612F606880E00E94310D80E0FC
:101C100060E20E94310D1F9108950895089508957E
:101C2000089508950F931F93CF93DF9305E0809F4E
:101C300080011124E801C451D0400F501040FE0132
:101C40006491660F81E00E94310D2196C017D10783
:101C5000B1F781E060E00E94310DDF91CF911F91DB
:101C60000F910895CF93DF93EC0180E06EEA0E941C
:101C7000310D8881882331F021960E94120E8991BE
:101C80008823D9F780E06FEA0E94310DDF91CF9170
:101C900008958823C4F08095282F30E0220F331F49
:101CA0002F5F304070E0269FC001279F900D369F28
:101CB000900D1124892F992781509F4F96958795D4
:101CC0008F5F80950895282F30E0220F331F2F5FFC
:101CD000304070E0269FC001279F900D369F900DE9
:101CE0001124892F992781509F4F969587958F5F53
:101CF00008951F920F920FB60F920BB60F921124F8
:101D0000CF92DF92EF92FF921F932F933F934F93C7
:101D10005F936F937F938F939F93AF93BF93EF9353
:101D2000FF93809181019091820123E08C31920791
:101D300030F080918301805F809383012EC0809179
:101D400081019091820122E08435920730F08091E8
:101D50008301885F8093830120C0809181019091ED
:101D6000820121E08C38920730F0809183018C5FF2
:101D70008093830112C08091810190918201843C03
:101D8000910530F0809183018E5F8093830105C0BF
:101D9000809183018F5F8093830180918101909175
:101DA000820121E08F3E920708F438C08091A4019F
:101DB00080FF14C0E0918301F0E0E459FC4FE4910E
:101DC000F0E0FBBDEABDE0918301EC5AF0E0E4599C
:101DD000FC4FE491F0E0F9BDE8BD13C0E091830150
:101DE000F0E0E459FC4FE491F0E0F9BDE8BDE0918A
:101DF0008301EC5AF0E0E459FC4FE491F0E0FBBDC4
:101E0000EABDE0918301E655F0E0E459FC4FE4912E
:101E1000F0E0F0937900E093780096C08091810122
:101E2000909182018036910508F047C08091A4010D
:101E300080FF1AC0E0918301F0E0E459FC4F8491E7
:101E400069E10E94490E90E09BBD8ABDE09183014B
:101E5000EC5AF0E0E459FC4F849169E10E94490E8C
:101E600090E099BD88BD19C0E0918301F0E0E4598C
:101E7000FC4F849169E10E94490E90E099BD88BDB4
:101E8000E0918301EC5AF0E0E459FC4F849169E160
:101E90000E94490E90E09BBD8ABDE0918301E6550A
:101EA000F0E0E459FC4F849169E10E94490E90E012
:101EB000909379008093780047C020918101309100
:101EC0008201E0918301F0E0E459FC4F14912F5519
:101ED000304046EE50E00E94761120E931E040E0CB
:101EE00050E00E9499110F2EF9E1CF2EF0E0DF2E85
:101EF000F0E0EF2EF0E0FF2EF02DC20ED31EE41E18
:101F0000F51E812F6C2D0E94490E90E09BBD8ABD6D
:101F1000E0918301EC5AF0E0E459FC4F84916C2D80
:101F20000E94490E90E099BD88BDE0918301E6557D
:101F3000F0E0E459FC4F84916C2D0E94490E90E032
:101F40009093790080937800FF91EF91BF91AF91CA
:101F50009F918F917F916F915F914F913F912F91C1
:101F60001F91FF90EF90DF90CF900F900BBE0F90DE
:101F70000FBE0F901F9018951F920F920FB60F92E1
:101F80000BB60F9211242F933F938F939F93EF9350
:101F9000FF93209181013091820180917F01909186
:101FA000800128173907B8F41092870180918801C1
:101FB0008F5F8093880190917A01891790F1109238
:101FC0008801809181019091820101969093820114
:101FD0008093810126C020918101309182018091FE
:101FE0007F019091800182179307B8F410928801C5
:101FF000809187018F5F8093870190917B01891782
:1020000080F0109287018091810190918201019767
:10201000909382018093810104C0109288011092F4
:1020200087018091810190918201009781F1E09177
:102030008101F0918201EE0FFF1FE459FA4F859163
:1020400094910197909387008093860080918401FA
:10205000882391F58FB580688FBD8FB580628FBD65
:102060008FB588608FBD81E080938401EAE8F0E05D
:102070008081887F81608083ECE7F0E080818061EF
:102080008083EDE7F0E080818061808315C08FB5AB
:102090008F778FBD8FB58F7D8FBD8FB5877F8FBDBC
:1020A00010928401EAE8F0E08081887F8083EDE788
:1020B000F0E080818F7E8083809185019091860100
:1020C00001969093860180938501FF91EF919F91F6
:1020D0008F913F912F910F900BBE0F900FBE0F90DD
:1020E0001F901895BD9A8FB58F778FBDBE9A8FB50B
:1020F0008F7D8FBDBF9A8FB5877F8FBD8091830104
:1021000090E09BBD8ABD809183018C5A90E099BD7F
:1021100088BD80918301865590E0909379008093EB
:10212000780081E08FBD8EB5887F81608EBD83E0B1
:1021300080938B0088E180938A008CE783BD8BE0DD
:1021400085BD86B7806886BF87B7806887BF0895DA
:102150008E30910528F41092800110927F0110C0FA
:1021600023E0823F920730F40D9790938001809393
:102170007F0106C084EE93E09093800180937F01FD
:1021800020917F01309180012C5F3F4F822F932F50
:102190000895882319F080937A0103C081E0809329
:1021A0007A0180917A010895882319F080937B0148
:1021B00003C081E080937B0180917B01089504D06E
:1021C0006894B1118DC0089570D088F09F5790F039
:1021D000B92F9927B751A0F0D1F0660F771F881F4C
:1021E000991F1AF0BA95C9F712C0B13081F077D0B3
:1021F000B1E0089574C0672F782F8827B85F39F051
:10220000B93FCCF3869577956795B395D9F73EF4AA
:1022100090958095709561957F4F8F4F9F4F089552
:10222000E89409C097FB3EF4909580957095619570
:102230007F4F8F4F9F4F9923A9F0F92F96E9BB2726
:102240009395F695879577956795B795F111F8CFA2
:10225000FAF4BB0F11F460FF1BC06F5F7F4F8F4F0D
:102260009F4F16C0882311F096E911C0772321F003
:102270009EE8872F762F05C0662371F096E8862F9B
:1022800070E060E02AF09A95660F771F881FDAF7F2
:10229000880F9695879597F9089557FD9058440FA4
:1022A000551F59F05F3F71F04795880F97FB991FB5
:1022B00061F09F3F79F08795089512161306140672
:1022C000551FF2CF4695F1DF08C0161617061806FF
:1022D000991FF1CF86957105610508940895E894DA
:1022E000BB2766277727CB0197F90895539FC00135
:1022F000429FB001529F700D811D1124911D349F8A
:10230000700D811D1124911D0895AA1BBB1B51E165
:1023100007C0AA1FBB1FA617B70710F0A61BB70B55
:10232000881F991F5A95A9F780959095BC01CD01FA
:102330000895A1E21A2EAA1BBB1BFD010DC0AA1F06
:10234000BB1FEE1FFF1FA217B307E407F50720F01E
:10235000A21BB30BE40BF50B661F771F881F991F99
:102360001A9469F760957095809590959B01AC01E2
:10237000BD01CF010895FB019F01E8944230C4F0F4
:102380004532B4F44A3029F497FB1EF490958195B8
:102390009F4F642F77270E948511805D8A330CF050
:1023A000895D8193CB010097A1F716F45DE251930B
:1023B0001082C9010C9432140F931F93DF93CF93B3
:1023C000CDB7DEB72E970FB6F894DEBF0FBECDBFE8
:1023D0000D891E8986E08C831A8309838FEF9FE71E
:1023E0009E838D839E01275E3F4FCE0101966F89AC
:1023F000788DA9010E940C12EF81F885E00FF11F82
:1024000010822E960FB6F894DEBF0FBECDBFCF91CF
:10241000DF911F910F9108952F923F924F925F92FB
:102420006F927F928F929F92AF92BF92CF92DF92E4
:10243000EF92FF920F931F93DF93CF93CDB7DEB749
:102440002C970FB6F894DEBF0FBECDBF6C011B01F9
:102450008A01FC0117821682838181FFD1C12E017E
:102460000894411C511CF6019381F10193FD859163
:1024700093FF81911F01882309F4BEC1853239F48D
:1024800093FD859193FF81911F01853229F490E09E
:10249000B6010E944214E7CFEE24FF2420E0203250
:1024A000B0F48B3269F08C3228F4803251F08332F0
:1024B00071F40BC08D3239F0803349F421602CC0A7
:1024C0002260246029C0286027C0206125C027FD24
:1024D0002CC0382F30533A3098F426FF08C08E2D88
:1024E000880FE82EEE0CEE0CE80EE30E15C08F2DD3
:1024F000880FF82EFF0CFF0CF80EF30E20620CC0B4
:102500008E3221F426FD78C1206406C08C3611F489
:10251000206802C0883649F4F10193FD859193FF4C
:1025200081911F01882309F0BACF982F95549330D9
:1025300018F09052933028F40C5F1F4FFFE3F9839B
:102540000DC0833631F0833771F0833509F060C0F8
:1025500022C0F801808189830E5F1F4F420171E024
:10256000A72EB12C16C062E0662E712C600E711E73
:10257000F8018080918026FF03C06E2D70E002C0BC
:102580006FEF7FEFC4012C870E9427145C01830149
:102590002C852F7717C052E0652E712C600E711EAE
:1025A000F8018080918026FF03C06E2D70E002C08C
:1025B0006FEF7FEFC4012C870E941C145C012C85F7
:1025C0002068830123FD20C008C080E290E0B601AE
:1025D0002C870E944214FA942C858F2D90E0A81627
:1025E000B90698F311C0F40127FD859127FF819169
:1025F0004F0190E0B6012C870E9442142C85F11007
:10260000FA940894A108B108A114B10461F7F1C0CB
:10261000843611F0893649F527FF08C0F80160813A
:102620007181828193810C5F1F4F09C0F801608125
:102630007181882777FD8095982F0E5F1F4F4FE699
:10264000B42EB22297FF09C0909580957095619540
:102650007F4F8F4F9F4FF0E8BF2AA2012AE030E062
:102660000E946E14782E741845C0853731F43FEE01
:10267000B32EB2222AE030E025C099EFB92EB22263
:102680008F36C1F0803720F4883509F0B5C00DC011
:10269000803721F0883709F0AFC002C020E1B22AAC
:1026A000B4FE0BC084E0B82A08C0B4FE09C0E6E05E
:1026B000BE2A06C028E030E005C020E130E002C0BC
:1026C00020E132E0B7FE08C0F801608171818281AB
:1026D00093810C5F1F4F07C0F8016081718180E01A
:1026E00090E00E5F1F4FA2010E946E14782E7418A6
:1026F000FFE7BF22B6FE0BC02EEFB2227E1438F4E5
:10270000B4FE07C0B2FC05C08FEEB82202C0A72CF1
:1027100001C0AE2C8B2D90E0B4FE0DC0FE01E70D84
:10272000F11D2081203319F4E9EEBE2209C0A394E3
:10273000B2FE06C004C086789070009709F0A3949A
:102740008B2C9924B3FC14C0B0FE0FC0AF1428F436
:10275000E72CEF0CEA18AF2C08C0E72C06C080E28B
:1027600090E0B6010E944214A394AF14C0F304C0D9
:10277000AF1410F4FA1801C0FF2484FE0FC080E3E8
:1027800090E0B6010E94421482FE1FC081FE03C089
:1027900088E590E010C088E790E00DC0C40186781D
:1027A0009070009791F081FC02C080E201C08BE242
:1027B000B7FC8DE290E0B6010E94421406C080E3AF
:1027C00090E0B6010E944214EA947E14C0F37A9419
:1027D000F201E70DF11D808190E0B6010E944214E4
:1027E0007720A9F706C080E290E0B6010E9442146B
:1027F000FA94FF20C1F737CEF6012681378102C057
:102800002FEF3FEFC9012C960FB6F894DEBF0FBE35
:10281000CDBFCF91DF911F910F91FF90EF90DF908F
:10282000CF90BF90AF909F908F907F906F905F9070
:102830004F903F902F900895FC010590615070409B
:102840000110D8F7809590958E0F9F1F0895FC0179
:102850006150704001900110D8F7809590958E0FCF
:102860009F1F0895DC01FC01672F71917723E1F729
:10287000329704C07C916D9370836291AE17BF074D
:10288000C8F308950F931F93CF93DF938C01EB014F
:102890008B8181FF1BC082FF0DC02E813F818C8107
:1028A0009D812817390764F4E881F9810193F98340
:1028B000E88306C0E885F985802F0995009731F4F3
:1028C0008E819F8101969F838E8302C00FEF1FEF41
:1028D000C801DF91CF911F910F910895FA01AA27A6
:1028E000283051F1203181F1E8946F936E7F6E5F53
:1028F0007F4F8F4F9F4FAF4FB1E03ED0B4E03CD001
:10290000670F781F891F9A1FA11D680F791F8A1FE3
:10291000911DA11D6A0F711D811D911DA11D20D04A
:1029200009F468943F912AE0269F11243019305D04
:102930003193DEF6CF010895462F4770405D4193F5
:10294000B3E00FD0C9F7F6CF462F4F70405D4A3342
:1029500018F0495D31FD4052419302D0A9F7EACF0A
:10296000B4E0A6959795879577956795BA95C9F739
:1029700000976105710508959B01AC010A2E06942C
:102980005795479537952795BA95C9F7620F731FE5
:0C299000841F951FA01D0895F894FFCF30
:10299C0020205350574D20746573742121210062FF
:1029AC0079203A004E6F757262616B6873682026ED
:1029BC0020656C6173612E697200436F7079726966
:1029CC006768743A00202020204F5A48414E204B13
:1029DC0044004652513A253033642E253031644838
:1029EC007A2000253033645320004143433A00449D
:1029FC0045433A25303364532000456C6173612E96
:0C2A0C0069722054657374000319010105
:00000001FF
